:100000000C941D030C9445030C9445030C94450378
:100010000C9445030C9445030C9445030C94450340
:100020000C9445030C9445030C9418070C948A0710
:100030000C9445030C9445030C9445030C94450320
:100040000C9445030C9445030C9445030C94450310
:100050000C9445030C9445030C9445030C94BA0985
:100060000C9445030C9445030C9445030C944503F0
:100070000C9445030C9445030C9445030C944503E0
:100080000C9445030C9445030C9445030C944503D0
:100090000C9445030C9445030C9445030C944503C0
:1000A0000C9445030C9445030C9445030000000098
:1000B000003E5B4F5B3E3E6B4F6B3E1C3E7C3E1CEE
:1000C000183C7E3C181C577D571C1C5E7F5E1C0034
:1000D000183C1800FFE7C3E7FF0018241800FFE7EB
:1000E000DBE7FF30483A060E2629792926407F05AE
:1000F0000507407F05253F5A3CE73C5A7F3E1C1CC4
:1001000008081C1C3E7F14227F22145F5F005F5F83
:1001100006097F017F006689956A6060606060946F
:10012000A2FFA29408047E040810207E2010080874
:100130002A1C08081C2A08081E101010100C1E0C7F
:100140001E0C30383E3830060E3E0E060000000011
:100150000000005F00000007000700147F147F14F8
:10016000242A7F2A1223130864623649562050003D
:1001700008070300001C2241000041221C002A1C29
:100180007F1C2A08083E0808008070300008080814
:100190000808000060600020100804023E51494534
:1001A0003E00427F400072494949462141494D3352
:1001B0001814127F1027454545393C4A49493141B9
:1001C000211109073649494936464949291E000087
:1001D00014000000403400000008142241141414DC
:1001E0001414004122140802015909063E415D59C8
:1001F0004E7C1211127C7F494949363E41414122D1
:100200007F4141413E7F494949417F090909013EFA
:10021000414151737F0808087F00417F4100204021
:10022000413F017F081422417F404040407F021C33
:10023000027F7F0408107F3E4141413E7F0909094A
:10024000063E4151215E7F09192946264949493216
:1002500003017F01033F4040403F1F2040201F3FDC
:100260004038403F63140814630304780403615961
:10027000494D43007F4141410204081020004141A3
:10028000417F04020102044040404040000307084F
:100290000020545478407F2844443838444444284B
:1002A000384444287F385454541800087E090218F2
:1002B000A4A49C787F0804047800447D400020407A
:1002C000403D007F1028440000417F40007C0478BE
:1002D00004787C080404783844444438FC18242406
:1002E0001818242418FC7C08040408485454542486
:1002F00004043F44243C4040207C1C2040201C3C03
:100300004030403C44281028444C9090907C4464F9
:10031000544C44000836410000007700000041368C
:10032000080002010204023C2623263C1EA1A16112
:10033000123A4040207A3854545559215555794144
:100340002154547841215554784020545579400C1B
:100350001E527212395555555939545454593955FC
:100360005454580000457C410002457D420001453F
:100370007C40F0292429F0F0282528F07C545545AC
:10038000002054547C547C0A097F4932494949323F
:100390003248484832324A4848303A4141217A3A54
:1003A00042402078009DA0A07D39444444393D401E
:1003B00040403D3C24FF2424487E4943662B2FFCCB
:1003C0002F2BFF0929F620C0887E09032054547979
:1003D000410000447D413048484A32384040227A4A
:1003E000007A0A0A727D0D19317D2629292F2826C7
:1003F0002929292630484D402038080808080808CF
:100400000808382F10C8ACBA2F102834FA00007B27
:10041000000008142A142222142A1408950022002D
:1004200095AA005500AAAA55AA55AA000000FF00E7
:10043000101010FF00141414FF001010FF00FF1024
:1004400010F010F0141414FC001414F700FF000056
:10045000FF00FF1414F404FC141417101F10101FD5
:10046000101F1414141F00101010F0000000001FC3
:10047000101010101F10101010F010000000FF10CE
:100480001010101010101010FF10000000FF1400CA
:1004900000FF00FF00001F10170000FC04F41414FC
:1004A0001710171414F404F40000FF00F7141414C8
:1004B00014141414F700F7141414171410101F1048
:1004C0001F141414F4141010F010F000001F101F6B
:1004D0000000001F14000000FC140000F010F010D9
:1004E00010FF10FF141414FF141010101F00000050
:1004F00000F010FFFFFFFFFFF0F0F0F0F0FFFFFF54
:100500000000000000FFFF0F0F0F0F0F38444438AA
:10051000447C2A2A3E147E02020606027E027E02E5
:1005200063554941633844443C04407E201E200604
:10053000027E020299A5E7A5991C2A492A1C4C7241
:1005400001724C304A4D4D303048784830BC625AC8
:10055000463D3E494949007E0101017E2A2A2A2A58
:100560002A44445F444440514A444040444A514034
:100570000000FF0103E080FF000008086B6B0836F5
:1005800012362436060F090F060000181800000066
:100590001010003040FF0101001F01011E00191D55
:1005A0001712003C3C3C3C00000000000102040823
:1005B00010204080D5F08D14A1C881CFD9F1AF2093
:1005C00000080B00020202010009040000010202FF
:1005D0000000052400100105240101010424020685
:1005E00005240600010705810310004009040100ED
:1005F000020A00000007050202400000070583020E
:100600004000000403090412010002EF020140410E
:1006100023368000010102030141726475696E6F27
:10062000204C4C430041726475696E6F204C656FBD
:100630006E6172646F00480A730C11241FBECFEF05
:10064000DAE0DEBFCDBF11E0A0E0B1E0ECE2FFE117
:1006500002C005900D92AC34B107D9F725E0ACE4A7
:10066000B1E001C01D92AB3EB207E1F713E0CCE16F
:10067000D3E004C02197FE010E94770DCB31D10752
:10068000C9F70E94E00A0C94890F0C940000809135
:1006900073018EBDE4E7F1E081910DB407FEFDCF5B
:1006A0008EBD85E0E337F807B9F70DB407FEFDCF3F
:1006B0000895FC0180917201811103C08FEF9FEFBB
:1006C00008959FB7F89482E08093E9002091F200AA
:1006D00030E01216130614F421E030E02115310544
:1006E00059F0289884E6809371018091F10080830D
:1006F0008091F200882319F09FBFC90108958BE60D
:100700008093E800F9CF2FB7F89483E08093E90055
:100710009091E800892F807295FF04C09091F200BB
:1007200080E4891B2FBF08958091690181110DC05C
:1007300082E08093650184E08093660110926801F5
:100740001092670181E08093690185E691E0089548
:10075000CF93DF931F92CDB7DEB76983DC01ED91B4
:10076000FC910280F381E02D41E050E0BE016F5F1B
:100770007F4F09950F90DF91CF91089583E080938B
:10078000E9008091F200882319F08AE38093E80061
:1007900008950E94830390E00895CF93DF931F9202
:1007A000CDB7DEB7FC018485958597FD05C02FEF99
:1007B0003FEF358724870BC0CE0101960E94590375
:1007C000019719F4898190E002C08FEF9FEF0F909D
:1007D000DF91CF9108950F931F93CF93DF931F92D3
:1007E000CDB7DEB78C01FC018485958597FF0EC0DF
:1007F000CE0101960E945903019719F4298130E036
:1008000002C02FEF3FEFF80135872487F801848578
:1008100095850F90DF91CF911F910F910895FC0165
:100820008485958597FD0BC09FB7F89482E08093EF
:10083000E9008091F2009FBF90E0019608959FB774
:10084000F89482E08093E9008091F2009FBF90E0ED
:10085000089540915F015091600120915D013091B8
:100860005E0142175307B4F49091E8009570E1F3EC
:100870009091E80092FD19C08093F10080915F0192
:100880009091600101968F739927892B19F48EEF4F
:100890008093E80080915F019091600101969093B0
:1008A000600180935F0181E0089580E00895CF9218
:1008B000DF92EF92FF920F931F93CF93DF931F92DC
:1008C000CDB7DEB7182F062FE42E862F880F8E5F48
:1008D00099830E94290483E00E942904F12EC12EED
:1008E0009981D92E8C2D8F19801798F4F601E7FE87
:1008F00002C0849101C080810E942904182F80E0E9
:100900000E9429048123FFEFCF1ADF0A8111EACF69
:1009100001C081E00F90DF91CF911F910F91FF9067
:10092000EF90DF90CF900895DF92EF92FF920F93B8
:100930001F93CF93DF93D82E8A017B01E40EF51E1F
:10094000EB01CE15DF0571F0D7FE03C0FE018491E7
:1009500001C088810E94290421968111F2CF8FEF76
:100960009FEF01C0C801DF91CF911F910F91FF90C0
:10097000EF90DF9008950F931F93CF93DF931F9213
:10098000CDB7DEB782E0898342E450E061EC75E0E8
:1009900080E80E9494040E949403DC0112960D9159
:1009A0001C9113970115110569F0D801ED91FC9187
:1009B0000280F381E02DBE016F5F7F4FC801099572
:1009C00097FF07C089810F90DF91CF911F910F9101
:1009D0000895F80100851185E5CF615030F0209130
:1009E000F100FC0120830196F8CF289884E68093DB
:1009F00071010895CF92DF92EF92FF920F931F93B0
:100A0000CF93DF936C017A018B01C0E0D0E0CE156B
:100A1000DF0589F0D8016D918D01D601ED91FC9132
:100A20000190F081E02DC6010995892B11F47E011A
:100A300002C02196ECCFC701DF91CF911F910F919A
:100A4000FF90EF90DF90CF9008953FB7F89480919A
:100A5000510190915201A0915301B091540126B5DA
:100A6000A89B05C02F3F19F00196A11DB11D3FBFE6
:100A7000BA2FA92F982F8827820F911DA11DB11D74
:100A8000BC01CD0142E0660F771F881F991F4A9570
:100A9000D1F708958F929F92AF92BF92CF92DF923B
:100AA000EF92FF926B017C010E9425054B015C01D6
:100AB000C114D104E104F104F1F00E942505DC0128
:100AC000CB0188199909AA09BB09883E9340A10561
:100AD000B10570F321E0C21AD108E108F10888EEEF
:100AE000880E83E0981EA11CB11CC114D104E1043E
:100AF000F10419F7DDCFFF90EF90DF90CF90BF901A
:100B0000AF909F908F9008958F929F92AF92BF92D7
:100B1000CF92DF92EF92FF920F931F93CF93DF93C9
:100B20005C016B017A0180910B01882309F45BC0A1
:100B300080917201882309F456C08091640180FF7E
:100B400005C08091E00082608093E000E70110E042
:100B50000AEF83E0882E9AE3992E2097D9F10E941C
:100B6000830381110AC0015009F43DC061E070E0C7
:100B700080E090E00E944A05F0CF282F30E0C217B5
:100B8000D3070CF48C2F4FB7F8948092E900909122
:100B9000E80095FF1DC0282F30E0C21BD30BF601E3
:100BA000982F915020F081918093F100FACFC20EDE
:100BB000D31E112319F09092E80009C08091E8003B
:100BC00085FD06C09092E80011E0209709F010E042
:100BD0004FBFC3CF1111C3CF5D9884E680936301EB
:100BE0001E141F0444F081E090E0F501938382839A
:100BF00080E090E001C0C701DF91CF911F910F917C
:100C0000FF90EF90DF90CF90BF90AF909F908F902C
:100C10000895BC0180E090E00C944A05ECEAF5E010
:100C200090E1969FD001A0781124A80F6770E60F7D
:100C3000F11D9491AD58BE4F442319F08C91982B1F
:100C400003C090958C9198239C9308952F923F9286
:100C50004F925F926F927F928F929F92AF92BF92CC
:100C6000CF92DF92EF92FF920F931F93CF93DF9378
:100C7000CDB7DEB727970FB6F894DEBF0FBECDBF56
:100C8000FC016A3069F4248D808D918D38E0239FBA
:100C9000800D911D1124918F808F178A168AA6C00E
:100CA0006D3009F4A3C09F838E83348C238D2983F8
:100CB000328D3A83608C718CE688F78880E8E8167C
:100CC000F104C4F0AE81BF815C962C915C97422FF9
:100CD00050E056968D919C915797B6E02B9F800DD2
:100CE000911D1124EE81FF81978B868B258D21111B
:100CF00067C07CC0F0E46F16710424F7C70125E0DB
:100D0000329E800D911D112418161906DCF6432C15
:100D1000512CC30138E0339E800D911D112418160B
:100D2000190684F685E0689F8001112404551F4F41
:100D300020E0F8012490253009F4212C430158E0EB
:100D400020FC02C0398101C03A8131110BC0F98108
:100D50008A81F81307C026945150840C951C5111B8
:100D6000EFCF25C067018C2D8E198315A0F7540194
:100D70008A2D88198315B8F490E8C916D10478F43F
:100D8000A0E4AA16B10458F4432FB501C6012C8380
:100D90003B835D830E940E065D813B812C81BFEF0A
:100DA000AB1ABB0AE5CFEFEFCE1ADE0ADCCF2F5F1E
:100DB000E40CF51C0F5F1F4F263009F0BACF82CF2D
:100DC0006AEF64039001659F300D112420583F4F56
:100DD000281739075CF4AE81BF81ED91FC91119722
:100DE0000190F081E02D6AE0CD01099581E090E06D
:100DF00027960FB6F894DEBF0FBECDBFDF91CF911F
:100E00001F910F91FF90EF90DF90CF90BF90AF9028
:100E10009F908F907F906F905F904F903F902F901A
:100E200008950895089580E090E008950E94740F59
:100E30001F920F920FB60F9211248F939F93809160
:100E4000E1009091E100937F9093E10083FF0FC058
:100E50001092E90091E09093EB001092EC0092E385
:100E60009093ED001092720198E09093F00082FF51
:100E700020C093E09093E9009091F200992319F03B
:100E80009AE39093E80090916301992339F090914F
:100E90006301915090936301992389F190917101BD
:100EA000992339F090917101915090937101992398
:100EB00041F184FF10C08091E2008E7E81608093BA
:100EC000E2008091E1008F7E8093E10080916401D7
:100ED0008E7E806111C080FF16C08091E2008E7E00
:100EE00080618093E2008091E1008E7E8093E1003A
:100EF000809164018E7E81608093640104C05D9A5C
:100F0000CDCF289AD6CF9F918F910F900FBE0F9083
:100F10001F9018951F920F920FB60F921124CF9227
:100F2000DF92EF92FF920F931F932F933F934F9374
:100F30005F936F937F938F939F93AF93BF93EF9341
:100F4000FF93CF93DF93CDB7DEB76C97DEBFCDBFF6
:100F50001092E9008091E80083FFEDC168E0CE01C6
:100F600045960E94ED0482EF8093E8008D8987FF0B
:100F700005C09091E80090FFFCCF03C09EEF9093D6
:100F8000E800982F907609F0C6C09E892F89188DA9
:100F900091110CC0803829F4809162018093F10096
:100FA00002C01092F1001092F10048C1422F50E0AF
:100FB000512B913051F4811141C14130510509F05B
:100FC0003DC1809162018D7F0BC0933061F481112E
:100FD00035C14130510509F031C180916201826013
:100FE000809362012BC1953041F48091E80080FF2D
:100FF000FCCF20682093E30021C1963009F05FC048
:10100000EB8CFC8C1092E9001092600110925F0151
:10101000123091F510925E0110925D010E94BB04A6
:1010200099E0BE016F5F7F4FDB01E92F1D92EA95CA
:10103000E9F799831A8391E09E8390EA98879AEF63
:10104000998720915F0130916001275F3F4F3C837A
:101050002B838D831092E9001092600110925F0142
:10106000F0925E01E0925D0149E050E080E00E9474
:1010700094040E94BB04E2C0F0925E01E0925D0124
:101080000E949403DC011296ED90FC901397E114FA
:10109000F10409F4C0C0D701ED91FC910480F58101
:1010A000E02DBE016B5E7F4FC7010995009719F0D7
:1010B0000CF0C4C0C7C0F701E084F184E8CF9730DA
:1010C00009F4C0C0983021F481E08093F100B6C0EB
:1010D000993009F0B3C0837009F0B4C0E7E1F1E0E2
:1010E00081E021E036E39081992361F08093E9006B
:1010F0002093EB0091919093EC003093ED008F5F83
:10110000873089F78EE78093EA001092EA008F8992
:101110008093720193C08B8D9C8D1092E900109288
:10112000600110925F0190935E0180935D01898D53
:10113000811156C08E899D89913A59F4813209F006
:1011400081C047E050E064E071E080E00E949404D8
:1011500075C0913209F076C0833289F4888D90E0B1
:10116000982F88272F89822BA0E0B0E08093000180
:1011700090930101A0930201B09303015FC08032FC
:1011800069F48091E80082FFFCCF67E084E091E0A1
:101190000E94ED048BEF8093E80006C0823209F0D4
:1011A0004DC08F8980930B0180916101882319F0D4
:1011B000EEEFFAE002C0E0E0F8E0809104019091E7
:1011C0000501A0910601B0910701803B9440A10563
:1011D000B10509F07BC080910B0180FF93C076C000
:1011E0000E949403DC0112960D911C911397011536
:1011F000110541F1D801ED91FC910190F081E02DB4
:10120000BE016B5E7F4FC8010995811117C0F801BF
:1012100000851185ECCF113009F44EC0133091F4E4
:101220008F89882309F445C0823081F440E860E169
:1012300085E296E00E945704882321F08EEF809388
:10124000E80079C081E28093EB0075C0813029F419
:1012500040E86BE089E196E0EDCF833099F70E949A
:101260009403DC011296ED90FC9013978E010F5FB2
:101270001F4F6801E114F10479F0D701ED91FC9161
:101280000680F781E02DB801C7010995080F111DEF
:10129000F701E084F184EECFD8011C92F6010190B1
:1012A0000020E9F73197BF016C197D0940E0C601C4
:1012B000C1CF63E076E002C067E076E061157105BA
:1012C00009F2FB01449150E080E840CF0FB6F8945A
:1012D000A895809160008861809360001092600002
:1012E0000FBEA895EE3F2AE0F20739F08091FE0A82
:1012F0009091FF0A91838083A1CF1092FF0A1092F0
:10130000FE0A9CCFEE3F8AE0F80731F080819181A0
:101310009093FF0A8093FE0A87E797E79183808383
:101320009BE088E10FB6F894A895809360000FBE0B
:101330009093600083CF6C960FB6F894DEBF0FBE1B
:10134000CDBFDF91CF91FF91EF91BF91AF919F9171
:101350008F917F916F915F914F913F912F911F914D
:101360000F91FF90EF90DF90CF900F900FBE0F90F6
:101370001F9018951F920F920FB60F9211242F9362
:101380003F938F939F93AF93BF9380914D01909123
:101390004E01A0914F01B091500130914C0123E0DA
:1013A000230F2D3720F40196A11DB11D05C026E89D
:1013B000230F0296A11DB11D20934C0180934D0176
:1013C00090934E01A0934F01B09350018091510131
:1013D00090915201A0915301B09154010196A11D29
:1013E000B11D8093510190935201A0935301B0938A
:1013F0005401BF91AF919F918F913F912F910F9089
:101400000FBE0F901F9018950F931F93CF93DF93EC
:101410008C0181E090E00E94D50C80FF31C08AE011
:1014200090E00E94D50C9FEF980F9E3F48F522E375
:1014300030E0D80157963C932E93569728E330E03E
:1014400059963C932E935897CBE0D0E0D801ED917C
:10145000FC910190F081E02D682FC8010995CE0123
:101460000E94D50C2196C131D10581F70E94470316
:1014700088EE93E0DF91CF911F910F910C940906B4
:10148000DF91CF911F910F91089504970C94040A56
:10149000109276051092750588EE93E0A0E0B0E01A
:1014A0008093770590937805A0937905B0937A059A
:1014B00081E291E090937405809373058FEF9FEF25
:1014C0009093800580937F051092CC051092CB05F8
:1014D0001092D2051092D30520E12093D405909369
:1014E000D1058093D0051092D9051092DA0510929B
:1014F000DB051092DC051092DD0583E391E090930B
:10150000CA058093C90581E491E09093CE0580934C
:10151000CD051092E0051092DF051092E2051092C1
:10152000E10581E08093E3051092E4058093E505F1
:101530001092E6051092C4051092C3051092C605DC
:101540001092C5051092C8051092C70569E070E0B9
:1015500080E090E00E94AA0E009799F09093C40555
:101560008093C30528E030E03093C6052093C5057D
:101570002091C7053091C805232BC1F4FC011082CE
:1015800015C08091C3059091C405009711F00E9489
:10159000120E1092C4051092C3051092C805109245
:1015A000C7051092C6051092C505089528E030E0E1
:1015B0003093C8052093C70563E471E00C94820F53
:1015C000789484B5826084BD84B5816084BD85B51E
:1015D000826085BD85B5816085BD80916E0081602A
:1015E00080936E00109281008091810082608093D0
:1015F00081008091810081608093810080918000D2
:10160000816080938000809191008260809391003E
:101610008091910081608093910080919000816021
:10162000809390008091C10084608093C10080917C
:10163000C10082608093C1008091C100816080936D
:10164000C1008091C30081608093C3008091C0007D
:1016500082608093C0008091C20081608093C2004C
:1016600080917A00846080937A0080917A00826011
:1016700080937A0080917A00816080937A008091D3
:101680007A00806880937A00109272011092620151
:10169000109264018091D70081608093D70080EA26
:1016A0008093D80089B5806189BD89B5826089BD84
:1016B00009B400FEFDCF61E070E080E090E00E94A0
:1016C0004A058091D8008F7C80618093D8008091FA
:1016D000E000807F8093E0008091E1008E7E809327
:1016E000E1008DE08093E200559A209AEEEFFFE74B
:1016F000859194918B3F9C4D19F481E08093610119
:1017000081EC80937C0085B1806F85B9249884B189
:10171000866E84B95E9A5F988AB1806D8AB9769A2E
:101720006E9881B3806F81BB899880B38D7080BBC8
:1017300080E58CBD81E08DBD85E090E00E940906CA
:101740005F9A85E090E00E9409065E985C98E4EB61
:10175000F5E08DE08E0F94919EBD00000DB407FE64
:10176000FDCF31968E13F7CF5C9A81E880936400A9
:1017700081E08093650080EF9FEF90935601809306
:101780005501F12CC3E7D1E076E0E72E00E810E048
:1017900020915501309156012D3131050CF03AC0A0
:1017A0008F2DFE0181118FEF00248193819381930E
:1017B00081930394D1F74091C7055091C805E49EE9
:1017C000C001E59E900D1124B801681B790BCB0177
:1017D000969587959093E0058093DF053093E20519
:1017E0002093E1056091C3057091C40589EC95E0F3
:1017F0000E94FA048AE090E00E9409060E944703D2
:1018000080915501909156010196909356018093D5
:101810005501BECF88EE93E00E94090680E8C82EED
:10182000D12CE12CF12C90E4892E912CA12CB12CFF
:1018300001E010E0C0E0D0E00E94C70CA7019601D3
:101840000E94DD0C70935C0160935B010E94C70CE9
:10185000A50194010E94DD0C70935A016093590117
:1018600060905B0170905C01E62FE695E695E69549
:10187000A62FA77020E8E29FF0011124ED58FE4F3B
:10188000E60DF11D408150E098010A2E02C0220FA2
:10189000331F0A94E2F72423352302C03595279598
:1018A000AA95E2F730935801209357017092E00512
:1018B0006092DF057093E2056093E10540E86416ED
:1018C000710448F497FD07C041E0232B09F040E084
:1018D000C3010E940E060E944703209709F4ACCF73
:1018E0000E940000A9CF8091C3059091C4050C947B
:1018F000120E8F929F92AF92BF92CF92DF92EF9291
:10190000FF92CF93DF93EC01688179818A819B817B
:10191000611571058105910521F464E279ED8BE58E
:1019200097E02DE133EF41E050E00E94DD0C4901EA
:101930005A019B01AC01A7EAB1E40E94FC0C6B01C7
:101940007C01ACEEB4EFA50194010E940A0DDC010C
:10195000CB018C0D9D1DAE1DBF1DB7FF03C00197B0
:10196000A109B04888839983AA83BB83BC01CD01B8
:101970009F77DF91CF91FF90EF90DF90CF90BF9056
:10198000AF909F908F9008950E94790C08958CE0FD
:1019900091E00E94790C089560930C0170930D0101
:1019A00080930E0190930F010895F999FECF92BD97
:1019B00081BDF89A992780B50895052E97FB1EF4EE
:1019C00000940E94F40C57FD07D00E94460D07FCBE
:1019D00003D04EF40C94F40C50954095309521951D
:1019E0003F4F4F4F5F4F089590958095709561954B
:1019F0007F4F8F4F9F4F08950E94680DA59F900DB8
:101A0000B49F900DA49F800D911D11240895B7FFE0
:101A10000C94FC0C0E94FC0C821B930B08952F92DB
:101A20003F924F925F926F927F928F929F92AF926E
:101A3000BF92CF92DF92EF92FF920F931F93CF93BB
:101A4000DF93CDB7DEB7CA1BDB0B0FB6F894DEBF52
:101A50000FBECDBF09942A88398848885F846E8478
:101A60007D848C849B84AA84B984C884DF80EE80C2
:101A7000FD800C811B81AA81B981CE0FD11D0FB6CB
:101A8000F894DEBF0FBECDBFED010895A1E21A2E7E
:101A9000AA1BBB1BFD010DC0AA1FBB1FEE1FFF1F12
:101AA000A217B307E407F50720F0A21BB30BE40B62
:101AB000F50B661F771F881F991F1A9469F76095A9
:101AC0007095809590959B01AC01BD01CF01089563
:101AD000A29FB001B39FC001A39F700D811D11246F
:101AE000911DB29F700D811D1124911D0895EE0F5F
:101AF000FF1F0590F491E02D0994CF93DF9382307E
:101B0000910510F482E090E0E091E905F091EA059A
:101B100020E030E0C0E0D0E0309711F14081518109
:101B200048175907C0F04817590761F4828193811B
:101B3000209719F09B838A832BC09093EA058093AA
:101B4000E90526C02115310519F04217530718F48D
:101B50009A01BE01DF01EF010280F381E02DDCCFAD
:101B60002115310509F1281B390B2430310590F47A
:101B700012968D919C9113976115710521F0FB01CF
:101B80009383828304C09093EA058093E905FD0165
:101B9000329644C0FD01E20FF31F819391932250CE
:101BA00031092D933C933AC02091E7053091E80527
:101BB000232B41F420911201309113013093E80559
:101BC0002093E70520911001309111012115310575
:101BD00041F42DB73EB74091140150911501241BDB
:101BE000350BE091E705F091E805E217F307A0F463
:101BF0002E1B3F0B2817390778F0AC014E5F5F4F63
:101C00002417350748F04E0F5F1F5093E8054093A7
:101C1000E7058193919302C0E0E0F0E0CF01DF910E
:101C2000CF9108950F931F93CF93DF93009709F4FB
:101C30008CC0FC013297138212820091E905109149
:101C4000EA050115110581F420813181820F931F6E
:101C50002091E7053091E8052817390779F5F093C9
:101C6000E805E093E70571C0D80140E050E0AE1709
:101C7000BF0750F412962D913C911397AD01211599
:101C8000310509F1D901F3CF9D01DA0133832283B4
:101C900060817181860F971F8217930769F4EC01A9
:101CA00028813981260F371F2E5F3F4F31832083D4
:101CB0008A819B8193838283452B29F4F093EA05E3
:101CC000E093E90542C01396FC93EE931297ED0161
:101CD000499159919E01240F351FE217F30771F4C2
:101CE00080819181840F951F029611969C938E930B
:101CF0008281938113969C938E931297E0E0F0E09B
:101D0000D80112968D919C911397009719F0F801C4
:101D10008C01F6CF8D919C9198012E5F3F4F820FE1
:101D2000931F2091E7053091E8052817390769F4DA
:101D3000309729F41092EA051092E90502C0138247
:101D400012821093E8050093E705DF91CF911F9170
:101D50000F910895A0E0B0E0E0EBFEE00C94130DCD
:101D6000EC01009721F4CB010E947D0DB8C0FC016D
:101D7000E60FF71F9C0122503109E217F30708F420
:101D8000ACC0D9010D911C91119706171707B0F03F
:101D90000530110508F49FC0C801049786179707FE
:101DA00008F499C002501109061B170B01931193F7
:101DB0006D937C93CF010E94120E8DC05B01A01A1F
:101DC000B10A4C01800E911EA091E905B091EA057F
:101DD00040E050E0E12CF12C109709F44AC0A8151E
:101DE000B905D1F56D907C901197630182E0C80E22
:101DF000D11CCA14DB0480F1A3014A195B096A01F2
:101E000082E0C80ED11C1296BC9012971396AC912A
:101E1000B5E0CB16D10440F0B282A3835183408356
:101E2000D9016D937C930AC00E5F1F4FC301800FD1
:101E3000911FF90191838083EB2DFA2FE114F104B6
:101E400031F0D7011396FC93EE93129744C0F093B0
:101E5000EA05E093E9053FC08D919C9111974817E1
:101E6000590708F4AC017D0112960D90BC91A02D8C
:101E7000B3CF8091E7059091E80588159905E1F4C5
:101E800046175707C8F480911001909111010097EF
:101E900041F48DB79EB74091140150911501841BF8
:101EA000950BE817F907C8F4F093E805E093E70508
:101EB000F901718360830FC0CB010E947D0D7C010D
:101EC000009759F0A801BE010E94790FCE010E942F
:101ED000120EC70104C0CE0102C080E090E0CDB771
:101EE000DEB7EEE00C942F0D81E090E0F8940C94B6
:101EF000890FFB01DC0102C001900D92415050405E
:101F0000D8F70895FB01DC0101900D920020E1F764
:101F1000089513E0CCE1D3E004C0FE010E94770DE8
:0C1F20002196CD31D107C9F7F894FFCF0E
:101F2C00FFFFFFFF00E100000000000001000000C7
:101F3C000000EB05800000C1808100000000000063
:101F4C0000A8038405C903BE030F04CD03EB0300F3
:101F5C000000002606FA0413071207040AFCFF000F
:0C1F6C0000450A406D6D6F726F636100EC
:00000001FF
