:100000000C9423030C944B030C944B030C944B0360
:100010000C944B030C944B030C944B030C944B0328
:100020000C944B030C944B030C9428070C949A07E4
:100030000C944B030C944B030C944B030C944B0308
:100040000C944B030C944B030C944B030C944B03F8
:100050000C944B030C944B030C944B030C94CA0963
:100060000C944B030C944B030C944B030C944B03D8
:100070000C944B030C944B030C944B030C944B03C8
:100080000C944B030C944B030C944B030C944B03B8
:100090000C944B030C944B030C944B030C944B03A8
:1000A0000C944B030C944B030C944B030102040877
:1000B0001020408000000000003E5B4F5B3E3E6B26
:1000C0004F6B3E1C3E7C3E1C183C7E3C181C577DF2
:1000D000571C1C5E7F5E1C00183C1800FFE7C3E73E
:1000E000FF0018241800FFE7DBE7FF30483A060E50
:1000F0002629792926407F050507407F05253F5A97
:100100003CE73C5A7F3E1C1C08081C1C3E7F142206
:100110007F22145F5F005F5F06097F017F006689B1
:10012000956A606060606094A2FFA29408047E04F7
:100130000810207E201008082A1C08081C2A08081D
:100140001E101010100C1E0C1E0C30383E383006DD
:100150000E3E0E06000000000000005F00000007D9
:10016000000700147F147F14242A7F2A1223130807
:10017000646236495620500008070300001C2241E3
:10018000000041221C002A1C7F1C2A08083E080887
:100190000080703000080808080800006060002037
:1001A000100804023E5149453E00427F400072491A
:1001B0004949462141494D331814127F10274545BE
:1001C00045393C4A494931412111090736494949D4
:1001D00036464949291E0000140000004034000042
:1001E00000081422411414141414004122140802AB
:1001F000015909063E415D594E7C1211127C7F491E
:100200004949363E414141227F4141413E7F494972
:1002100049417F090909013E414151737F0808089E
:100220007F00417F41002040413F017F081422416F
:100230007F404040407F021C027F7F0408107F3EC9
:100240004141413E7F090909063E4151215E7F0936
:10025000192946264949493203017F01033F40409D
:10026000403F1F2040201F3F4038403F6314081488
:100270006303047804036159494D43007F414141C0
:100280000204081020004141417F040201020440A1
:1002900040404040000307080020545478407F2825
:1002A0004444383844444428384444287F3854541B
:1002B000541800087E090218A4A49C787F0804043E
:1002C0007800447D40002040403D007F10284400DD
:1002D00000417F40007C047804787C08040478386E
:1002E00044444438FC1824241818242418FC7C089E
:1002F000040408485454542404043F44243C40401B
:10030000207C1C2040201C3C4030403C44281028CD
:10031000444C9090907C4464544C44000836410016
:100320000000770000004136080002010204023C90
:100330002623263C1EA1A161123A4040207A38545F
:1003400054555921555579412154547841215554DA
:10035000784020545579400C1E527212395555552B
:1003600059395454545939555454580000457C4116
:100370000002457D420001457C40F0292429F0F02F
:10038000282528F07C545545002054547C547C0A80
:10039000097F4932494949323248484832324A484D
:1003A00048303A4141217A3A42402078009DA0A04D
:1003B0007D39444444393D4040403D3C24FF2424A1
:1003C000487E4943662B2FFC2F2BFF0929F620C0BE
:1003D000887E090320545479410000447D4130480F
:1003E000484A32384040227A007A0A0A727D0D1952
:1003F000317D2629292F28262929292630484D40B4
:1004000020380808080808080808382F10C8ACBAAF
:100410002F102834FA00007B000008142A1422222E
:10042000142A14089500220095AA005500AAAA557E
:10043000AA55AA000000FF00101010FF00141414A9
:10044000FF001010FF00FF1010F010F0141414FC47
:10045000001414F700FF0000FF00FF1414F404FC64
:10046000141417101F10101F101F1414141F001045
:100470001010F0000000001F101010101F101010BE
:1004800010F010000000FF101010101010101010CD
:10049000FF10000000FF140000FF00FF00001F100D
:1004A000170000FC04F414141710171414F404F4C7
:1004B0000000FF00F714141414141414F700F714B8
:1004C0001414171410101F101F141414F414101007
:1004D000F010F000001F101F0000001F14000000AB
:1004E000FC140000F010F01010FF10FF141414FFA3
:1004F000141010101F00000000F010FFFFFFFFFF9E
:10050000F0F0F0F0F0FFFFFF0000000000FFFF0F31
:100510000F0F0F0F38444438447C2A2A3E147E02C1
:10052000020606027E027E02635549416338444456
:100530003C04407E201E2006027E020299A5E7A50B
:10054000991C2A492A1C4C7201724C304A4D4D307C
:100550003048784830BC625A463D3E494949007EA1
:100560000101017E2A2A2A2A2A44445F4444405138
:100570004A444040444A51400000FF0103E080FFEC
:10058000000008086B6B083612362436060F090F78
:1005900006000018180000001010003040FF010194
:1005A000001F01011E00191D1712003C3C3C3C00BD
:1005B00000000000D5F08D14A1C881CFD9F1AF2083
:1005C00000070605040100080A0B0C0D09080B00C2
:1005D00002020201000904000001020200000524D9
:1005E000001001052401010104240206052406006F
:1005F000010705810310004009040100020A000000
:1006000000070502024000000705830240000004C5
:1006100003090412010002EF020140412336800069
:10062000010102030141726475696E6F204C4C43F5
:100630000041726475696E6F204C656F6E61726403
:100640006F00580A150D11241FBECFEFDAE0DEBF90
:10065000CDBF11E0A0E0B1E0E0E7F0E202C005901C
:100660000D92AC34B107D9F725E0ACE4B1E001C09C
:100670001D92AD3EB207E1F713E0C2E2D3E004C041
:100680002197FE010E94190EC132D107C9F70E94BD
:10069000F00A0C942B100C940000809175018EBD13
:1006A000E6E7F1E081910DB407FEFDCF8EBD85E058
:1006B000E537F807B9F70DB407FEFDCF0895FC0143
:1006C00080917401811103C08FEF9FEF08959FB750
:1006D000F89482E08093E9002091F20030E0121655
:1006E000130614F421E030E02115310559F0289863
:1006F00084E6809373018091F10080838091F20001
:10070000882319F09FBFC90108958BE68093E80004
:10071000F9CF2FB7F89483E08093E9009091E80037
:10072000892F807295FF04C09091F20080E4891BAC
:100730002FBF089580916B0181110DC082E08093DD
:10074000670184E08093680110926A011092690148
:1007500081E080936B0187E691E00895CF93DF936A
:100760001F92CDB7DEB76983DC01ED91FC91028069
:10077000F381E02D41E050E0BE016F5F7F4F0995AE
:100780000F90DF91CF91089583E08093E9008091ED
:10079000F200882319F08AE38093E80008950E940C
:1007A000890390E00895CF93DF931F92CDB7DEB712
:1007B000FC018485958597FD05C02FEF3FEF3587B8
:1007C00024870BC0CE0101960E945F03019719F4A4
:1007D000898190E002C08FEF9FEF0F90DF91CF9162
:1007E00008950F931F93CF93DF931F92CDB7DEB77A
:1007F0008C01FC018485958597FF0EC0CE01019682
:100800000E945F03019719F4298130E002C02FEFA5
:100810003FEFF80135872487F801848595850F908F
:10082000DF91CF911F910F910895FC0184859585EB
:1008300097FD0BC09FB7F89482E08093E900809108
:10084000F2009FBF90E0019608959FB7F89482E070
:100850008093E9008091F2009FBF90E0089540915D
:1008600061015091620120915F0130916001421756
:100870005307B4F49091E8009570E1F39091E8008B
:1008800092FD19C08093F100809161019091620105
:1008900001968F739927892B19F48EEF8093E800C6
:1008A0008091610190916201019690936201809321
:1008B000610181E0089580E00895CF92DF92EF9288
:1008C000FF920F931F93CF93DF931F92CDB7DEB7A5
:1008D000182F062FE42E862F880F8E5F99830E9493
:1008E0002F0483E00E942F04F12EC12E9981D92E6E
:1008F0008C2D8F19801798F4F601E7FE02C08491C1
:1009000001C080810E942F04182F80E00E942F04D4
:100910008123FFEFCF1ADF0A8111EACF01C081E006
:100920000F90DF91CF911F910F91FF90EF90DF908B
:10093000CF900895DF92EF92FF920F931F93CF9382
:10094000DF93D82E8A017B01E40EF51EEB01CE1554
:10095000DF0571F0D7FE03C0FE01849101C08881DC
:100960000E942F0421968111F2CF8FEF9FEF01C0DB
:10097000C801DF91CF911F910F91FF90EF90DF9011
:1009800008950F931F93CF93DF931F92CDB7DEB7D8
:1009900082E0898342E450E06DEC75E080E80E94DB
:1009A0009A040E949A03DC0112960D911C911397F0
:1009B0000115110569F0D801ED91FC910280F381D8
:1009C000E02DBE016F5F7F4FC801099597FF07C0FB
:1009D00089810F90DF91CF911F910F910895F801B8
:1009E00000851185E5CF615030F02091F100FC01C8
:1009F00020830196F8CF289884E6809373010895A8
:100A0000CF92DF92EF92FF920F931F93CF93DF93DA
:100A10006C017A018B01C0E0D0E0CE15DF0589F0D2
:100A2000D8016D918D01D601ED91FC910190F0817D
:100A3000E02DC6010995892B11F47E0102C0219693
:100A4000ECCFC701DF91CF911F910F91FF90EF90F5
:100A5000DF90CF9008953FB7F89480915101909125
:100A60005201A0915301B091540126B5A89B05C035
:100A70002F3F19F00196A11DB11D3FBFBA2FA92F1D
:100A8000982F8827820F911DA11DB11DBC01CD019A
:100A900042E0660F771F881F991F4A95D1F7089586
:100AA0008F929F92AF92BF92CF92DF92EF92FF927E
:100AB0006B017C010E942B054B015C01C114D10428
:100AC000E104F104F1F00E942B05DC01CB0188194F
:100AD0009909AA09BB09883E9340A105B10570F3A5
:100AE00021E0C21AD108E108F10888EE880E83E0FF
:100AF000981EA11CB11CC114D104E104F10419F722
:100B0000DDCFFF90EF90DF90CF90BF90AF909F90A0
:100B10008F9008958F929F92AF92BF92CF92DF9263
:100B2000EF92FF920F931F93CF93DF935C016B01C2
:100B30007A0180910B01882309F45BC080917401D4
:100B4000882309F456C08091660180FF05C080911A
:100B5000E00082608093E000E70110E00AEF83E0AC
:100B6000882E9AE3992E2097D9F10E94890381114A
:100B70000AC0015009F43DC061E070E080E090E0FF
:100B80000E945005F0CF282F30E0C217D3070CF495
:100B90008C2F4FB7F8948092E9009091E80095FF70
:100BA0001DC0282F30E0C21BD30BF601982F9150A7
:100BB00020F081918093F100FACFC20ED31E112351
:100BC00019F09092E80009C08091E80085FD06C008
:100BD0009092E80011E0209709F010E04FBFC3CFDA
:100BE0001111C3CF5D9884E6809365011E141F0424
:100BF00044F081E090E0F5019383828380E090E00F
:100C000001C0C701DF91CF911F910F91FF90EF902D
:100C1000DF90CF90BF90AF909F908F900895BC01D0
:100C200080E090E00C94500560387105D0F44034B9
:100C30005105B8F4ECEAF0E080E1849FD001A0789F
:100C40001124A60F4770E40FF11D8491AB58BE4FDD
:100C5000222319F06C91862B03C080956C9186231A
:100C60008C9308952F923F924F925F926F927F9252
:100C70008F929F92AF92BF92CF92DF92EF92FF92AC
:100C80000F931F93CF93DF93CDB7DEB729970FB69E
:100C9000F894DEBF0FBECDBFFC016A3069F4248D2D
:100CA000808D918D38E0239F800D911D1124918FAF
:100CB000808F178A168AAAC06D3009F4A7C0998759
:100CC0008887F48C338C228C608C718C0689178910
:100CD00000381105C4F0A885B9855C962C915C9705
:100CE000422F50E056968D919C915797B6E02B9FDE
:100CF000800D911D1124E885F985978B868B258DB4
:100D000021116EC083C0F0E46F16710424F7C8018E
:100D100025E0F29E800D911D112418161906DCF6AF
:100D20008F2D90E09C838B83C301A8E0FA9E800DF9
:100D3000911D11241816190674F6B5E06B9FB001C9
:100D40001124FB01EC54FF4FFA83E98330E08885DE
:100D5000998504969E838D83E981FA81E4903530EC
:100D600009F4E12C430188E0482EE0FC02C0532C3A
:100D700001C0522C51100BC0321009C0E6944A94A5
:100D80008B819C81880E991E4110EFCF1BC068019A
:100D90008C2D801B8F1590F754018A2D88198F1583
:100DA00068F4252DA501B6018D819E813F830E94A7
:100DB00014069FEFA91AB90A3F81EFCFAFEFCA1A05
:100DC000DA0AE6CF3F5FEB81FC810E0F1F1F89819E
:100DD0009A8101969A838983363009F0BDCF7BCF03
:100DE0006AEF64039001659F300D112420583F4F36
:100DF000281739075CF4A885B985ED91FC91119706
:100E00000190F081E02D6AE0CD01099581E090E04C
:100E100029960FB6F894DEBF0FBECDBFDF91CF91FC
:100E20001F910F91FF90EF90DF90CF90BF90AF9008
:100E30009F908F907F906F905F904F903F902F90FA
:100E400008950895089580E090E008950E94161096
:100E50001F920F920FB60F9211248F939F93809140
:100E6000E1009091E100937F9093E10083FF0FC038
:100E70001092E90091E09093EB001092EC0092E365
:100E80009093ED001092740198E09093F00082FF2F
:100E900020C093E09093E9009091F200992319F01B
:100EA0009AE39093E80090916501992339F090912D
:100EB0006501915090936501992389F19091730197
:100EC000992339F090917301915090937301992374
:100ED00041F184FF10C08091E2008E7E816080939A
:100EE000E2008091E1008F7E8093E10080916601B5
:100EF0008E7E806111C080FF16C08091E2008E7EE0
:100F000080618093E2008091E1008E7E8093E10019
:100F1000809166018E7E81608093660104C05D9A37
:100F2000CDCF289AD6CF9F918F910F900FBE0F9063
:100F30001F9018951F920F920FB60F921124CF9207
:100F4000DF92EF92FF920F931F932F933F934F9354
:100F50005F936F937F938F939F93AF93BF93EF9321
:100F6000FF93CF93DF93CDB7DEB76C97DEBFCDBFD6
:100F70001092E9008091E80083FFEDC168E0CE01A6
:100F800045960E94F30482EF8093E8008D8987FFE5
:100F900005C09091E80090FFFCCF03C09EEF9093B6
:100FA000E800982F907609F0C6C09E892F89188D89
:100FB00091110CC0803829F4809164018093F10074
:100FC00002C01092F1001092F10048C1422F50E08F
:100FD000512B913051F4811141C14130510509F03B
:100FE0003DC1809164018D7F0BC0933061F481110C
:100FF00035C14130510509F031C1809164018260F1
:10100000809364012BC1953041F48091E80080FF0A
:10101000FCCF20682093E30021C1963009F05FC027
:10102000EB8CFC8C1092E90010926201109261012D
:10103000123091F51092600110925F010E94C1047C
:1010400099E0BE016F5F7F4FDB01E92F1D92EA95AA
:10105000E9F799831A8391E09E8390EA98879AEF43
:1010600099872091610130916201275F3F4F3C8356
:101070002B838D831092E90010926201109261011E
:10108000F0926001E0925F0149E050E080E00E9450
:101090009A040E94C104E2C0F0926001E0925F01F4
:1010A0000E949A03DC011296ED90FC901397E114D4
:1010B000F10409F4C0C0D701ED91FC910480F581E1
:1010C000E02DBE016B5E7F4FC7010995009719F0B7
:1010D0000CF0C4C0C7C0F701E084F184E8CF9730BA
:1010E00009F4C0C0983021F481E08093F100B6C0CB
:1010F000993009F0B3C0837009F0B4C0E7E1F1E0C2
:1011000081E021E036E39081992361F08093E9004A
:101110002093EB0091919093EC003093ED008F5F62
:10112000873089F78EE78093EA001092EA008F8972
:101130008093740193C08B8D9C8D1092E900109266
:101140006201109261019093600180935F01898D2B
:10115000811156C08E899D89913A59F4813209F0E6
:1011600081C047E050E064E071E080E00E949A04B2
:1011700075C0913209F076C0833289F4888D90E091
:10118000982F88272F89822BA0E0B0E08093000160
:1011900090930101A0930201B09303015FC08032DC
:1011A00069F48091E80082FFFCCF67E084E091E081
:1011B0000E94F3048BEF8093E80006C0823209F0AE
:1011C0004DC08F8980930B0180916301882319F0B2
:1011D000EEEFFAE002C0E0E0F8E0809104019091C7
:1011E0000501A0910601B0910701803B9440A10543
:1011F000B10509F07BC080910B0180FF93C076C0E0
:101200000E949A03DC0112960D911C91139701150F
:10121000110541F1D801ED91FC910190F081E02D93
:10122000BE016B5E7F4FC8010995811117C0F8019F
:1012300000851185ECCF113009F44EC0133091F4C4
:101240008F89882309F445C0823081F440E860E149
:1012500081E396E00E945D04882321F08EEF809365
:10126000E80079C081E28093EB0075C0813029F4F9
:1012700040E86BE085E296E0EDCF833099F70E947D
:101280009A03DC011296ED90FC9013978E010F5F8C
:101290001F4F6801E114F10479F0D701ED91FC9141
:1012A0000680F781E02DB801C7010995080F111DCF
:1012B000F701E084F184EECFD8011C92F601019091
:1012C0000020E9F73197BF016C197D0940E0C601A4
:1012D000C1CF6FE076E002C063E176E06115710591
:1012E00009F2FB01449150E080E840CF0FB6F8943A
:1012F000A8958091600088618093600010926000E2
:101300000FBEA895EE3F2AE0F20739F08091FE0A61
:101310009091FF0A91838083A1CF1092FF0A1092CF
:10132000FE0A9CCFEE3F8AE0F80731F08081918180
:101330009093FF0A8093FE0A87E797E79183808363
:101340009BE088E10FB6F894A895809360000FBEEB
:101350009093600083CF6C960FB6F894DEBF0FBEFB
:10136000CDBFDF91CF91FF91EF91BF91AF919F9151
:101370008F917F916F915F914F913F912F911F912D
:101380000F91FF90EF90DF90CF900F900FBE0F90D6
:101390001F9018951F920F920FB60F9211242F9342
:1013A0003F938F939F93AF93BF9380914D01909103
:1013B0004E01A0914F01B091500130914C0123E0BA
:1013C000230F2D3720F40196A11DB11D05C026E87D
:1013D000230F0296A11DB11D20934C0180934D0156
:1013E00090934E01A0934F01B09350018091510111
:1013F00090915201A0915301B09154010196A11D09
:10140000B11D8093510190935201A0935301B09369
:101410005401BF91AF919F918F913F912F910F9068
:101420000FBE0F901F9018950F931F93CF93DF93CC
:101430008C0181E090E00E94770D80FF31C08AE04E
:1014400090E00E94770D9FEF980F9E3F48F522E3B2
:1014500030E0D80157963C932E93569728E330E01E
:1014600059963C932E935897CBE0D0E0D801ED915C
:10147000FC910190F081E02D682FC8010995CE0103
:101480000E94770D2196C131D10581F70E944D034D
:1014900088EE93E0DF91CF911F910F910C940F068E
:1014A000DF91CF911F910F91089504970C94140A26
:1014B000109278051092770588EE93E0A0E0B0E0F6
:1014C0008093790590937A05A0937B05B0937C0572
:1014D00081E291E090937605809375058FEF9FEF01
:1014E00090938205809381051092CE051092CD05D0
:1014F0001092D4051092D50520E12093D605909343
:10150000D3058093D2051092DB051092DC05109272
:10151000DD051092DE051092DF0583E391E09093E4
:10152000CC058093CB0581E491E09093D005809326
:10153000CF051092E2051092E1051092E405109299
:10154000E30581E08093E5051092E6058093E705C9
:101550001092E8051092C6051092C5051092C805B4
:101560001092C7051092CA051092C90569E070E093
:1015700080E090E00E944C0F009799F09093C60590
:101580008093C50528E030E03093C8052093C70557
:101590002091C9053091CA05232BC1F4FC011082AA
:1015A00015C08091C5059091C605009711F00E9465
:1015B000B40E1092C6051092C5051092CA0510927D
:1015C000C9051092C8051092C705089528E030E0BB
:1015D0003093CA052093C90563E471E00C9424108C
:1015E000CF93DF9300D01F92CDB7DEB7789484B548
:1015F000826084BD84B5816084BD85B5826085BD0F
:1016000085B5816085BD80916E00816080936E009C
:10161000109281008091810082608093810080918E
:10162000810081608093810080918000816080933F
:101630008000809191008260809391008091910060
:1016400081608093910080919000816080939000F0
:101650008091C10084608093C1008091C10082604C
:101660008093C1008091C10081608093C10080910E
:10167000C30081608093C3008091C000826080932A
:10168000C0008091C20081608093C20080917A0086
:10169000846080937A0080917A00826080937A00DF
:1016A00080917A00816080937A0080917A008068CE
:1016B00080937A0010927401109264011092660176
:1016C0008091D70081608093D70080EA8093D80012
:1016D00089B5806189BD89B5826089BD09B400FE84
:1016E000FDCF61E070E080E090E00E9450058091C5
:1016F000D8008F7C80618093D8008091E000807F4B
:101700008093E0008091E1008E7E8093E1008DE087
:101710008093E200559A209AEEEFFFE7859194912D
:101720008B3F9C4D19F481E08093630181EC8093A1
:101730007C0085B1806F85B9249884B1866E84B9A8
:101740005E9A5F988AB1806D8AB9769A6E9881B3F5
:10175000806F81BB899880B38D7080BB80E58CBD24
:1017600081E08DBD85E090E00E940F065F9A85E0E4
:1017700090E00E940F065E985C98E4EBF5E08DE047
:101780008E0F94919EBD00000DB407FEFDCF3196E3
:101790008E13F7CF5C9A81E88093640081E0809398
:1017A0006500E2ECF5E0E49180917B00E3FB00272B
:1017B00000F910E0F5E0000F111FFA95E1F78F7DB9
:1017C000802B80937B00E770E064E0937C00809145
:1017D0007A00806480937A0080917A0086FDFCCF45
:1017E000609178008091790070E0782B072E000CD2
:1017F000880B990B611571058105910511F00E9407
:101800006E0D80EF9FEF9093560180935501F12C60
:1018100075E7C72E71E0D72EE6E0EE2E00E810E067
:1018200020915501309156012D3131050CF03AC00F
:101830008F2DF60181118FEF002481938193819385
:1018400081930394D1F74091C9055091CA05E49E54
:10185000C001E59E900D1124B801681B790BCB01E6
:10186000969587959093E2058093E1053093E40582
:101870002093E3056091C5057091C6058BEC95E05A
:101880000E9400058AE090E00E940F060E944D032E
:101890008091550190915601019690935601809345
:1018A0005501BECF88EE93E00E940F0690E4492ECA
:1018B000512C612C712C0E94690D20E830E040E031
:1018C00050E00E947F0D70935E0160935D010E9465
:1018D000690DA30192010E947F0D70935C016093DA
:1018E0005B010E94690D20E830E040E050E00E947A
:1018F0007F0D70935A01609359010E94690DA301F5
:1019000092010E947F0D7093580160935701FB0173
:10191000E0905901F0905A0100915B0110915C0137
:10192000A0915D01B0915E01BB83AA83AB01401B16
:10193000510B57FF03C05195419551099701AA8159
:10194000BB812A1B3B0B37FF03C031952195310921
:10195000B1E0B9832417350714F019820BC03E2D6E
:101960002F2D7B01E32FF22F3A812B811B830A83DA
:10197000032F122F2A813B81E216F3065CF4302FED
:10198000212F8F01E32FF22F3A812B81FB82EA82F4
:10199000E32EF22E47016A817B81861A970A1F0186
:1019A000201A310A37FE03C03194219431086401B2
:1019B00097FE03C07FEFC71AD70AD594C7940E17B6
:1019C0001F0714F08FEF01C081E0A82E880FBB081D
:1019D0008A819B81E816F906F4F0398121E03323EE
:1019E00021F04A815B81B80103C0A8016A817B8133
:1019F0008FEC95E00E941406C218D308D7FE04C0ED
:101A00000A0D1B1DC80CD91C6A817B816F5F7F4F3B
:101A10007B836A83DDCF0E944D03A0E0B0E0AB2B57
:101A200009F449CF0E94000046CF8091C5059091EE
:101A3000C6050C94B40E8F929F92AF92BF92CF9234
:101A4000DF92EF92FF92CF93DF93EC01688179816F
:101A50008A819B81611571058105910521F464E2FC
:101A600079ED8BE597E02DE133EF41E050E00E9406
:101A70007F0D49015A019B01AC01A7EAB1E40E9424
:101A80009E0D6B017C01ACEEB4EFA50194010E94A8
:101A9000AC0DDC01CB018C0D9D1DAE1DBF1DB7FF34
:101AA00003C00197A109B04888839983AA83BB83A7
:101AB000BC01CD019F77DF91CF91FF90EF90DF9038
:101AC000CF90BF90AF909F908F9008950E941B0D74
:101AD00008958CE091E00E941B0D089560930C0125
:101AE00070930D0180930E0190930F010895F99961
:101AF000FECF92BD81BDF89A992780B50895052E35
:101B000097FB1EF400940E94960D57FD07D00E948B
:101B1000E80D07FC03D04EF40C94960D50954095BB
:101B2000309521953F4F4F4F5F4F08959095809589
:101B3000709561957F4F8F4F9F4F08950E940A0EB9
:101B4000A59F900DB49F900DA49F800D911D112411
:101B50000895B7FF0C949E0D0E949E0D821B930B5F
:101B600008952F923F924F925F926F927F928F9241
:101B70009F92AF92BF92CF92DF92EF92FF920F931C
:101B80001F93CF93DF93CDB7DEB7CA1BDB0B0FB626
:101B9000F894DEBF0FBECDBF09942A8839884888E3
:101BA0005F846E847D848C849B84AA84B984C88479
:101BB000DF80EE80FD800C811B81AA81B981CE0F70
:101BC000D11D0FB6F894DEBF0FBECDBFED01089555
:101BD000A1E21A2EAA1BBB1BFD010DC0AA1FBB1F31
:101BE000EE1FFF1FA217B307E407F50720F0A21BA3
:101BF000B30BE40BF50B661F771F881F991F1A9410
:101C000069F760957095809590959B01AC01BD0139
:101C1000CF010895A29FB001B39FC001A39F700D93
:101C2000811D1124911DB29F700D811D1124911DE4
:101C30000895EE0FFF1F0590F491E02D0994CF93C6
:101C4000DF938230910510F482E090E0E091EB05A3
:101C5000F091EC0520E030E0C0E0D0E0309711F1E9
:101C60004081518148175907C0F04817590761F45E
:101C700082819381209719F09B838A832BC0909354
:101C8000EC058093EB0526C02115310519F04217AC
:101C9000530718F49A01BE01DF01EF010280F381BE
:101CA000E02DDCCF2115310509F1281B390B24303B
:101CB000310590F412968D919C91139761157105E1
:101CC00021F0FB019383828304C09093EC05809301
:101CD000EB05FD01329644C0FD01E20FF31F819335
:101CE0009193225031092D933C933AC02091E905FC
:101CF0003091EA05232B41F4209112013091130118
:101D00003093EA052093E9052091100130911101EB
:101D10002115310541F42DB73EB740911401509182
:101D20001501241B350BE091E905F091EA05E21756
:101D3000F307A0F42E1B3F0B2817390778F0AC01EE
:101D40004E5F5F4F2417350748F04E0F5F1F5093CB
:101D5000EA054093E9058193919302C0E0E0F0E049
:101D6000CF01DF91CF9108950F931F93CF93DF930E
:101D7000009709F48CC0FC01329713821282009103
:101D8000EB051091EC050115110581F420813181DD
:101D9000820F931F2091E9053091EA052817390732
:101DA00079F5F093EA05E093E90571C0D80140E0C8
:101DB00050E0AE17BF0750F412962D913C91139747
:101DC000AD012115310509F1D901F3CF9D01DA01EA
:101DD0003383228360817181860F971F8217930757
:101DE00069F4EC0128813981260F371F2E5F3F4FA0
:101DF000318320838A819B8193838283452B29F4BD
:101E0000F093EC05E093EB0542C01396FC93EE9340
:101E10001297ED01499159919E01240F351FE21748
:101E2000F30771F480819181840F951F02961196BA
:101E30009C938E938281938113969C938E93129799
:101E4000E0E0F0E0D80112968D919C9113970097F5
:101E500019F0F8018C01F6CF8D919C9198012E5FBD
:101E60003F4F820F931F2091E9053091EA05281713
:101E7000390769F4309729F41092EC051092EB05BC
:101E800002C0138212821093EA050093E905DF91E4
:101E9000CF911F910F910895A0E0B0E0E2E5FFE03F
:101EA0000C94B50DEC01009721F4CB010E941F0E9C
:101EB000B8C0FC01E60FF71F9C0122503109E21760
:101EC000F30708F4ACC0D9010D911C9111970617C6
:101ED0001707B0F00530110508F49FC0C80104973A
:101EE0008617970708F499C002501109061B170BB3
:101EF000019311936D937C93CF010E94B40E8DC01A
:101F00005B01A01AB10A4C01800E911EA091EB0555
:101F1000B091EC0540E050E0E12CF12C109709F471
:101F20004AC0A815B905D1F56D907C901197630151
:101F300082E0C80ED11CCA14DB0480F1A3014A1947
:101F40005B096A0182E0C80ED11C1296BC90129700
:101F50001396AC91B5E0CB16D10440F0B282A383C6
:101F600051834083D9016D937C930AC00E5F1F4F4C
:101F7000C301800F911FF90191838083EB2DFA2F0C
:101F8000E114F10431F0D7011396FC93EE9312970C
:101F900044C0F093EC05E093EB053FC08D919C911C
:101FA00011974817590708F4AC017D0112960D905E
:101FB000BC91A02DB3CF8091E9059091EA058815D9
:101FC0009905E1F446175707C8F4809110019091E4
:101FD0001101009741F48DB79EB7409114015091C3
:101FE0001501841B950BE817F907C8F4F093EA056F
:101FF000E093E905F901718360830FC0CB010E9472
:102000001F0E7C01009759F0A801BE010E941B1011
:10201000CE010E94B40EC70104C0CE0102C080E010
:1020200090E0CDB7DEB7EEE00C94D10D81E090E00A
:10203000F8940C942B10FB01DC0102C001900D926E
:1020400041505040D8F70895FB01DC0101900D92FA
:102050000020E1F7089513E0C2E2D3E004C0FE01DE
:102060000E94190E2196C332D107C9F7F894FFCF09
:10207000FFFFFFFF00E10000000000000100000082
:102080000000ED05800000C180810000000000001C
:1020900000AE038A05CF03C4031504D303F1030084
:1020A0000000003206000523072207140AFCFF0087
:0C20B00000550A406D6D6F726F63610097
:00000001FF
