:100000000C9423030C944B030C944B030C944B0360
:100010000C944B030C944B030C944B030C944B0328
:100020000C944B030C944B030C94B5090C9482056F
:100030000C944B030C944B030C944B030C944B0308
:100040000C944B030C944B030C944B030C944B03F8
:100050000C944B030C944B030C944B030C94F1073E
:100060000C944B030C944B030C944B030C944B03D8
:100070000C944B030C944B030C944B030C944B03C8
:100080000C944B030C944B030C944B030C944B03B8
:100090000C944B030C944B030C944B030C944B03A8
:1000A0000C944B030C944B030C944B030102040877
:1000B0001020408000000000003E5B4F5B3E3E6B26
:1000C0004F6B3E1C3E7C3E1C183C7E3C181C577DF2
:1000D000571C1C5E7F5E1C00183C1800FFE7C3E73E
:1000E000FF0018241800FFE7DBE7FF30483A060E50
:1000F0002629792926407F050507407F05253F5A97
:100100003CE73C5A7F3E1C1C08081C1C3E7F142206
:100110007F22145F5F005F5F06097F017F006689B1
:10012000956A606060606094A2FFA29408047E04F7
:100130000810207E201008082A1C08081C2A08081D
:100140001E101010100C1E0C1E0C30383E383006DD
:100150000E3E0E06000000000000005F00000007D9
:10016000000700147F147F14242A7F2A1223130807
:10017000646236495620500008070300001C2241E3
:10018000000041221C002A1C7F1C2A08083E080887
:100190000080703000080808080800006060002037
:1001A000100804023E5149453E00427F400072491A
:1001B0004949462141494D331814127F10274545BE
:1001C00045393C4A494931412111090736494949D4
:1001D00036464949291E0000140000004034000042
:1001E00000081422411414141414004122140802AB
:1001F000015909063E415D594E7C1211127C7F491E
:100200004949363E414141227F4141413E7F494972
:1002100049417F090909013E414151737F0808089E
:100220007F00417F41002040413F017F081422416F
:100230007F404040407F021C027F7F0408107F3EC9
:100240004141413E7F090909063E4151215E7F0936
:10025000192946264949493203017F01033F40409D
:10026000403F1F2040201F3F4038403F6314081488
:100270006303047804036159494D43007F414141C0
:100280000204081020004141417F040201020440A1
:1002900040404040000307080020545478407F2825
:1002A0004444383844444428384444287F3854541B
:1002B000541800087E090218A4A49C787F0804043E
:1002C0007800447D40002040403D007F10284400DD
:1002D00000417F40007C047804787C08040478386E
:1002E00044444438FC1824241818242418FC7C089E
:1002F000040408485454542404043F44243C40401B
:10030000207C1C2040201C3C4030403C44281028CD
:10031000444C9090907C4464544C44000836410016
:100320000000770000004136080002010204023C90
:100330002623263C1EA1A161123A4040207A38545F
:1003400054555921555579412154547841215554DA
:10035000784020545579400C1E527212395555552B
:1003600059395454545939555454580000457C4116
:100370000002457D420001457C40F0292429F0F02F
:10038000282528F07C545545002054547C547C0A80
:10039000097F4932494949323248484832324A484D
:1003A00048303A4141217A3A42402078009DA0A04D
:1003B0007D39444444393D4040403D3C24FF2424A1
:1003C000487E4943662B2FFC2F2BFF0929F620C0BE
:1003D000887E090320545479410000447D4130480F
:1003E000484A32384040227A007A0A0A727D0D1952
:1003F000317D2629292F28262929292630484D40B4
:1004000020380808080808080808382F10C8ACBAAF
:100410002F102834FA00007B000008142A1422222E
:10042000142A14089500220095AA005500AAAA557E
:10043000AA55AA000000FF00101010FF00141414A9
:10044000FF001010FF00FF1010F010F0141414FC47
:10045000001414F700FF0000FF00FF1414F404FC64
:10046000141417101F10101F101F1414141F001045
:100470001010F0000000001F101010101F101010BE
:1004800010F010000000FF101010101010101010CD
:10049000FF10000000FF140000FF00FF00001F100D
:1004A000170000FC04F414141710171414F404F4C7
:1004B0000000FF00F714141414141414F700F714B8
:1004C0001414171410101F101F141414F414101007
:1004D000F010F000001F101F0000001F14000000AB
:1004E000FC140000F010F01010FF10FF141414FFA3
:1004F000141010101F00000000F010FFFFFFFFFF9E
:10050000F0F0F0F0F0FFFFFF0000000000FFFF0F31
:100510000F0F0F0F38444438447C2A2A3E147E02C1
:10052000020606027E027E02635549416338444456
:100530003C04407E201E2006027E020299A5E7A50B
:10054000991C2A492A1C4C7201724C304A4D4D307C
:100550003048784830BC625A463D3E494949007EA1
:100560000101017E2A2A2A2A2A44445F4444405138
:100570004A444040444A51400000FF0103E080FFEC
:10058000000008086B6B083612362436060F090F78
:1005900006000018180000001010003040FF010194
:1005A000001F01011E00191D1712003C3C3C3C00BD
:1005B00000000000D5F08D14A1C881CFD9F1AF2083
:1005C00000070605040100080A0B0C0D09080B00C2
:1005D00002020201000904000001020200000524D9
:1005E000001001052401010104240206052406006F
:1005F000010705810310004009040100020A000000
:1006000000070502024000000705830240000004C5
:1006100003090412010002EF020140412336800069
:10062000010102030141726475696E6F204C4C43F5
:100630000041726475696E6F204C656F6E61726403
:100640006F000C0D060D11241FBECFEFDAE0DEBFE8
:10065000CDBF11E0A0E0B1E0E2E8F1E202C0059018
:100660000D92AC34B107D9F725E0ACE4B1E001C09C
:100670001D92AF3EB207E1F713E0C2E2D3E004C03F
:100680002197FE010E94A20EC132D107C9F70E9434
:10069000270A0C94B4100C9400004091630150910F
:1006A0006401209161013091620142175307B4F453
:1006B0009091E8009570E1F39091E80092FD19C0E7
:1006C0008093F100809163019091640101968F7392
:1006D0009927892B19F48EEF8093E80080916301AC
:1006E000909164010196909364018093630181E08D
:1006F000089580E00895CF92DF92EF92FF920F93DA
:100700001F93CF93DF931F92CDB7DEB7182F062F1D
:10071000E42E862F880F8E5F99830E944D0383E01D
:100720000E944D03F12EC12E9981D92E8C2D8F1947
:10073000801798F4F601E7FE02C0849101C0808121
:100740000E944D03182F80E00E944D038123FFEF8C
:10075000CF1ADF0A8111EACF01C081E00F90DF914B
:10076000CF911F910F91FF90EF90DF90CF90089560
:10077000DF92EF92FF920F931F93CF93DF93D82EC8
:100780008A017B01E40EF51EEB01CE15DF0571F049
:10079000D7FE03C0FE01849101C088810E944D03F1
:1007A00021968111F2CF8FEF9FEF01C0C801DF9139
:1007B000CF911F910F91FF90EF90DF9008956150BE
:1007C00030F02091F100FC0120830196F8CF2898A9
:1007D00084E6809368010895CF92DF92EF92FF92B2
:1007E0000F931F93CF93DF936C017A018B01C0E0CD
:1007F000D0E0CE15DF0589F0D8016D918D01D601CD
:10080000ED91FC910190F081E02DC6010995892BB5
:1008100011F47E0102C02196ECCFC701DF91CF9188
:100820001F910F91FF90EF90DF90CF9008953FB709
:10083000F8948091510190915201A0915301B0918F
:10084000540126B5A89B05C02F3F19F00196A11DA4
:10085000B11D3FBFBA2FA92F982F8827820F911D56
:10086000A11DB11DBC01CD0142E0660F771F881F9D
:10087000991F4A95D1F7089560387105D0F4403436
:100880005105B8F4ECEAF0E080E1849FD001A07853
:100890001124A60F4770E40FF11D8491A659BE4F95
:1008A000222319F06C91862B03C080956C918623CE
:1008B0008C9308952F923F924F925F926F927F9206
:1008C0008F929F92AF92BF92CF92DF92EF92FF9260
:1008D0000F931F93CF93DF93CDB7DEB729970FB652
:1008E000F894DEBF0FBECDBFFC016A3069F4248DE1
:1008F000808D918D38E0239F800D911D1124918F63
:10090000808F178A168AAAC06D3009F4A7C099870C
:100910008887F48C338C228C608C718C06891789C3
:1009200000381105C4F0A885B9855C962C915C97B8
:10093000422F50E056968D919C915797B6E02B9F91
:10094000800D911D1124E885F985978B868B258D67
:1009500021116EC083C0F0E46F16710424F7C80142
:1009600025E0F29E800D911D112418161906DCF663
:100970008F2D90E09C838B83C301A8E0FA9E800DAD
:10098000911D11241816190674F6B5E06B9FB0017D
:100990001124FB01EC54FF4FFA83E98330E0888592
:1009A000998504969E838D83E981FA81E4903530A0
:1009B00009F4E12C430188E0482EE0FC02C0532CEE
:1009C00001C0522C51100BC0321009C0E6944A9459
:1009D0008B819C81880E991E4110EFCF1BC068014E
:1009E0008C2D801B8F1590F754018A2D88198F1537
:1009F00068F4252DA501B6018D819E813F830E945B
:100A00003C049FEFA91AB90A3F81EFCFAFEFCA1A92
:100A1000DA0AE6CF3F5FEB81FC810E0F1F1F898151
:100A20009A8101969A838983363009F0BDCF7BCFB6
:100A30006AEF64039001659F300D112420583F4FE9
:100A4000281739075CF4A885B985ED91FC911197B9
:100A50000190F081E02D6AE0CD01099581E090E000
:100A600029960FB6F894DEBF0FBECDBFDF91CF91B0
:100A70001F910F91FF90EF90DF90CF90BF90AF90BC
:100A80009F908F907F906F905F904F903F902F90AE
:100A900008950895089580E090E008950F931F93BE
:100AA000CF93DF931F92CDB7DEB782E0898342E414
:100AB00050E06DEC75E080E80E94B8030E94A10947
:100AC000DC0112960D911C9113970115110569F027
:100AD000D801ED91FC910280F381E02DBE016F5FA2
:100AE0007F4FC801099597FF07C089810F90DF915B
:100AF000CF911F910F910895F80100851185E5CFE1
:100B00000E949F101F920F920FB60F921124CF9246
:100B1000DF92EF92FF920F931F932F933F934F9388
:100B20005F936F937F938F939F93AF93BF93EF9355
:100B3000FF93CF93DF93CDB7DEB76C97DEBFCDBF0A
:100B40001092E9008091E80083FFEDC168E0CE01DA
:100B500045960E94DF0382EF8093E8008D8987FF2E
:100B600005C09091E80090FFFCCF03C09EEF9093EA
:100B7000E800982F907609F0C6C09E892F89188DBD
:100B800091110CC0803829F4809166018093F100A6
:100B900002C01092F1001092F10048C1422F50E0C3
:100BA000512B913051F4811141C14130510509F06F
:100BB0003DC1809166018D7F0BC0933061F481113E
:100BC00035C14130510509F031C180916601826023
:100BD000809366012BC1953041F48091E80080FF3D
:100BE000FCCF20682093E30021C1963009F05FC05C
:100BF000EB8CFC8C1092E90010926401109263015E
:100C0000123091F510926201109261010E944E051E
:100C100099E0BE016F5F7F4FDB01E92F1D92EA95DE
:100C2000E9F799831A8391E09E8390EA98879AEF77
:100C300099872091630130916401275F3F4F3C8386
:100C40002B838D831092E90010926401109263014E
:100C5000F0926201E092610149E050E080E00E9480
:100C6000B8030E944E05E2C0F0926201E092610179
:100C70000E94A109DC011296ED90FC901397E114FB
:100C8000F10409F4C0C0D701ED91FC910480F58115
:100C9000E02DBE016B5E7F4FC7010995009719F0EB
:100CA0000CF0C4C0C7C0F701E084F184E8CF9730EE
:100CB00009F4C0C0983021F481E08093F100B6C0FF
:100CC000993009F0B3C0837009F0B4C0E7E1F1E0F6
:100CD00081E021E036E39081992361F08093E9007F
:100CE0002093EB0091919093EC003093ED008F5F97
:100CF000873089F78EE78093EA001092EA008F89A7
:100D00008093690193C08B8D9C8D1092E9001092A5
:100D10006401109263019093620180936101898D57
:100D2000811156C08E899D89913A59F4813209F01A
:100D300081C047E050E064E071E080E00E94B803C9
:100D400075C0913209F076C0833289F4888D90E0C5
:100D5000982F88272F89822BA0E0B0E08093000194
:100D600090930101A0930201B09303015FC0803210
:100D700069F48091E80082FFFCCF67E084E091E0B5
:100D80000E94DF038BEF8093E80006C0823209F0F7
:100D90004DC08F8980930B0180916501882319F0E4
:100DA000EEEFFAE002C0E0E0F8E0809104019091FB
:100DB0000501A0910601B0910701803B9440A10577
:100DC000B10509F07BC080910B0180FF93C076C014
:100DD0000E94A109DC0112960D911C911397011537
:100DE000110541F1D801ED91FC910190F081E02DC8
:100DF000BE016B5E7F4FC8010995811117C0F801D4
:100E000000851185ECCF113009F44EC0133091F4F8
:100E10008F89882309F445C0823081F440E860E17D
:100E200081E396E00E947B03882321F08EEF80937C
:100E3000E80079C081E28093EB0075C0813029F42D
:100E400040E86BE085E296E0EDCF833099F70E94B1
:100E5000A109DC011296ED90FC9013978E010F5FB3
:100E60001F4F6801E114F10479F0D701ED91FC9175
:100E70000680F781E02DB801C7010995080F111D03
:100E8000F701E084F184EECFD8011C92F6010190C5
:100E90000020E9F73197BF016C197D0940E0C601D8
:100EA000C1CF6FE076E002C063E176E061157105C5
:100EB00009F2FB01449150E080E840CF0FB6F8946E
:100EC000A895809160008861809360001092600016
:100ED0000FBEA895EE3F2AE0F20739F08091FE0A96
:100EE0009091FF0A91838083A1CF1092FF0A109204
:100EF000FE0A9CCFEE3F8AE0F80731F080819181B5
:100F00009093FF0A8093FE0A87E797E79183808397
:100F10009BE088E10FB6F894A895809360000FBE1F
:100F20009093600083CF6C960FB6F894DEBF0FBE2F
:100F3000CDBFDF91CF91FF91EF91BF91AF919F9185
:100F40008F917F916F915F914F913F912F911F9161
:100F50000F91FF90EF90DF90CF900F900FBE0F900A
:100F60001F9018958F929F92AF92BF92CF92DF926F
:100F7000EF92FF926B017C010E9417044B015C0110
:100F8000C114D104E104F104F1F00E941704DC0162
:100F9000CB0188199909AA09BB09883E9340A1058C
:100FA000B10570F321E0C21AD108E108F10888EE1A
:100FB000880E83E0981EA11CB11CC114D104E10469
:100FC000F10419F7DDCFFF90EF90DF90CF90BF9045
:100FD000AF909F908F900895BC0180E090E00C94BA
:100FE000B2071F920F920FB60F9211242F933F93C7
:100FF0008F939F93AF93BF9380914D0190914E013A
:10100000A0914F01B091500130914C0123E0230F8A
:101010002D3720F40196A11DB11D05C026E8230F30
:101020000296A11DB11D20934C0180934D01909318
:101030004E01A0934F01B0935001809151019091C6
:101040005201A0915301B09154010196A11DB11D0F
:101050008093510190935201A0935301B093540196
:10106000BF91AF919F918F913F912F910F900FBEA4
:101070000F901F901895FC0180916901811103C0A8
:101080008FEF9FEF08959FB7F89482E08093E90077
:101090002091F20030E01216130614F421E030E043
:1010A0002115310559F0289884E6809368018091D4
:1010B000F10080838091F200882319F09FBFC9015D
:1010C00008958BE68093E800F9CF2FB7F89483E07A
:1010D0008093E9009091E800892F807295FF04C009
:1010E0009091F20080E4891B2FBF0895CF93DF9386
:1010F0001F92CDB7DEB76983DC01ED91FC910280D0
:10110000F381E02D41E050E0BE016F5F7F4F099514
:101110000F90DF91CF91089583E08093E900809153
:10112000F200882319F08AE38093E80008950E9472
:10113000650890E00895CF93DF931F92CDB7DEB797
:10114000FC018485958597FD05C02FEF3FEF35871E
:1011500024870BC0CE0101960E943B08019719F429
:10116000898190E002C08FEF9FEF0F90DF91CF91C8
:1011700008950F931F93CF93DF931F92CDB7DEB7E0
:101180008C01FC018485958597FF0EC0CE010196E8
:101190000E943B08019719F4298130E002C02FEF2B
:1011A0003FEFF80135872487F801848595850F90F6
:1011B000DF91CF911F910F910895FC018485958552
:1011C00097FD0BC09FB7F89482E08093E90080916F
:1011D000F2009FBF90E0019608959FB7F89482E0D7
:1011E0008093E9008091F2009FBF90E008958F9274
:1011F0009F92AF92BF92CF92DF92EF92FF920F93A6
:101200001F93CF93DF935C016B017A0180910B01F7
:10121000882309F45BC080916901882309F456C0D2
:101220008091670180FF05C08091E000826080931B
:10123000E000E70110E00AEF83E0882E9AE3992EA0
:101240002097D9F10E94650881110AC0015009F464
:101250003DC061E070E080E090E00E94B207F0CF16
:10126000282F30E0C217D3070CF48C2F4FB7F89417
:101270008092E9009091E80095FF1DC0282F30E092
:10128000C21BD30BF601982F915020F081918093CF
:10129000F100FACFC20ED31E112319F09092E8008C
:1012A00009C08091E80085FD06C09092E80011E039
:1012B000209709F010E04FBFC3CF1111C3CF5D9845
:1012C00084E680938E051E141F0444F081E090E0B4
:1012D000F5019383828380E090E001C0C701DF9134
:1012E000CF911F910F91FF90EF90DF90CF90BF9023
:1012F000AF909F908F90089580916A018EBDEBE62C
:10130000F1E081910DB407FEFDCF8EBD85E0EA3698
:10131000F807B9F70DB407FEFDCF089580E0EAE6BF
:10132000F1E081118FEF0024819381938193819368
:101330000394D1F7E0E7F5E0118E108E178A168A34
:1013400008958091930581110DC082E080938F05EF
:1013500084E080939005109292051092910581E0AF
:10136000809393058FE895E008951F920F920FB632
:101370000F9211248F939F938091E1009091E1004F
:10138000937F9093E10083FF0FC01092E90091E0FA
:101390009093EB001092EC0092E39093ED0010928A
:1013A000690198E09093F00082FF20C093E0909351
:1013B000E9009091F200992319F09AE39093E800E4
:1013C00090918E05992339F090918E0591509093CC
:1013D0008E05992389F190916801992339F09091B4
:1013E0006801915090936801992341F184FF10C0E6
:1013F0008091E2008E7E81608093E2008091E10026
:101400008F7E8093E100809167018E7E806111C0A4
:1014100080FF16C08091E2008E7E80618093E200A2
:101420008091E1008E7E8093E100809167018E7E45
:1014300081608093670104C05D9ACDCF289AD6CF92
:101440009F918F910F900FBE0F901F901895CF9383
:10145000DF9300D000D000D0CDB7DEB7789484B54C
:10146000826084BD84B5816084BD85B5826085BDA0
:1014700085B5816085BD80916E00816080936E002E
:101480001092810080918100826080938100809120
:1014900081008160809381008091800081608093D1
:1014A00080008091910082608093910080919100F2
:1014B0008160809391008091900081608093900082
:1014C0008091C10084608093C1008091C1008260DE
:1014D0008093C1008091C10081608093C1008091A0
:1014E000C30081608093C3008091C00082608093BC
:1014F000C0008091C20081608093C20080917A0018
:10150000846080937A0080917A00826080937A0070
:1015100080917A00816080937A0080917A0080685F
:1015200080937A001092690110926601109267010F
:101530008091D70081608093D70080EA8093D800A3
:1015400089B5806189BD89B5826089BD09B400FE15
:10155000FDCF61E070E080E090E00E94B2078091F2
:10156000D8008F7C80618093D8008091E000807FDC
:101570008093E0008091E1008E7E8093E1008DE019
:101580008093E200559A209AEEEFFFE785919491BF
:101590008B3F9C4D19F481E08093650181EC809331
:1015A0007C0085B1806F85B9249884B1866E84B93A
:1015B0005E9A5F988AB1806D8AB9769A6E9881B387
:1015C000806F81BB899880B38D7080BB80E58CBDB6
:1015D00081E08DBD85E090E00E94EC075F9A85E098
:1015E00090E00E94EC075E985C98E4EBF5E08DE0FB
:1015F0008E0F94919EBD00000DB407FEFDCF319675
:101600008E13F7CF5C9A81E88093640081E0809329
:101610006500E2ECF5E0E49180917B00E3FB0027BC
:1016200000F910E045E0000F111F4A95E1F78F7DAA
:10163000802B80937B00E770E064E0937C008091D6
:101640007A00806480937A0080917A0086FDFCCFD6
:10165000609178008091790070E0782B072E000C63
:10166000880B990B611571058105910511F00E9498
:10167000F70D0E94F20D20E830E040E050E00E94BB
:10168000080E70935C0160935B010E94F20D20E4F0
:1016900030E040E050E00E94080E70935E016093DD
:1016A0005D010E94F20D2AE030E040E050E00E942F
:1016B000080E6F5F7F4F7093600160935F0180EF52
:1016C0009FEF909356018093550136E0F32E00E88A
:1016D00010E0C0905501D0905601FDE1CF16D10425
:1016E0008CF50E948E0940916E0550916F05F49E15
:1016F000C001F59E900D1124F801E81BF90BCF01F4
:10170000969587959093870580938605D092890555
:10171000C092880560916A0570916B0580E795E03D
:101720000E94EC038AE090E00E94EC070E947C0992
:1017300080915501909156010196909356018093A6
:101740005501C7CF88EE93E00E94EC070E948E09F6
:1017500020905F013090600120915D0130915E0129
:101760003E832D8300915B0110915C017101FF2488
:1017700044244394512C4E185F08882799278E19CA
:101780009F09FC01EE0FFF1FFA83E983A9014E0DAB
:101790005F1D21E0B80184E795E00E943C044D8183
:1017A0005E814E195F0921E0B80184E795E00E944F
:1017B0003C04B8016E0D7F1D21E04D815E8184E700
:1017C00095E00E943C04B8016E197F0921E04D812B
:1017D0005E8184E795E00E943C04612C712C21E03D
:1017E00030E03C832B836E147F040CF06BC057FCFD
:1017F0000AC031E0E31AF10889819A8102969A833E
:101800008983480E591E9FEF691A790AEB81FC8182
:101810003296FC83EB834E0E5F1E4301800E911EB9
:1018200021E0CD80DE80CE0CDF1CA601B40184E770
:1018300095E00E943C045801A618B70821E0A601D3
:10184000B50184E795E00E943C0421E0CD80DE8074
:10185000CE18DF08A601B40184E795E00E943C049D
:1018600021E0A601B50184E795E00E943C04CD800B
:10187000DE80C60CD71C21E0A6015801AE0CBF1CAF
:10188000B50184E795E00E943C0421E0A6016801CF
:10189000CE18DF08B60184E795E00E943C048D80F5
:1018A0009E808618970821E0A401B50184E795E0A1
:1018B0000E943C0421E0A401B60184E795E00E9467
:1018C0003C0491CF80E890E082199309801791073A
:1018D00018F00215130570F481E090E02091590191
:1018E00030915A01232B11F080E090E090935A013F
:1018F0008093590180E490E0821993092D813E8103
:101900008217930718F02215330570F481E090E0F8
:101910002091570130915801232B11F080E090E085
:1019200090935801809357018091590190915A01E9
:10193000892B19F00F5F1F4F02C00150110910933E
:101940005C0100935B018091570190915801892BB4
:1019500021F08D819E81019603C08D819E8101972A
:1019600090935E0180935D018AE090E00E94EC0715
:101970000E947C0980E090E0892B09F4E7CE0E9468
:101980000000E4CE0F931F93CF93DF938C0181E08F
:1019900090E00E94000E80FF31C08AE090E00E943B
:1019A000000E9FEF980F9E3F48F522E330E0D801EC
:1019B00057963C932E93569728E330E059963C93E4
:1019C0002E935897CBE0D0E0D801ED91FC91019097
:1019D000F081E02D682FC8010995CE010E94000E0C
:1019E0002196C131D10581F70E947C0988EE93E0F0
:1019F000DF91CF911F910F910C94EC07DF91CF9164
:101A00001F910F91089504970C94C20C80916A0560
:101A100090916B050C943D0F10929E0510929D05C0
:101A200088EE93E0A0E0B0E080939F059093A0053E
:101A3000A093A105B093A20581E291E090939C054B
:101A400080939B058FEF9FEF9093A8058093A70548
:101A500010927305109272051092790510927A0512
:101A600020E120937B059093780580937705109271
:101A700080051092810510928205109283051092C4
:101A8000840583E391E0909371058093700581E470
:101A900091E09093750580937405109287051092DC
:101AA0008605109289051092880581E080938A0549
:101AB00010928B0580938C0510928D0510926B050A
:101AC00010926A0510926D0510926C0510926F05C8
:101AD00010926E0569E070E080E090E00E94D50F02
:101AE000009799F090936B0580936A0528E030E0A9
:101AF00030936D0520936C0520916E0530916F0534
:101B0000232BC1F4FC01108215C080916A059091CD
:101B10006B05009711F00E943D0F10926B0510921B
:101B20006A0510926F0510926E0510926D05109265
:101B30006C05089528E030E030936F0520936E0522
:101B400063E471E00C94AD108F929F92AF92BF92BC
:101B5000CF92DF92EF92FF92CF93DF93EC016881F7
:101B600079818A819B81611571058105910521F437
:101B700064E279ED8BE597E02DE133EF41E050E051
:101B80000E94080E49015A019B01AC01A7EAB1E489
:101B90000E94270E6B017C01ACEEB4EFA50194010D
:101BA0000E94350EDC01CB018C0D9D1DAE1DBF1DAD
:101BB000B7FF03C00197A109B04888839983AA831E
:101BC000BB83BC01CD019F77DF91CF91FF90EF9058
:101BD000DF90CF90BF90AF909F908F9008950E941C
:101BE000A40D08958CE091E00E94A40D08956093E7
:101BF0000C0170930D0180930E0190930F010895D5
:101C0000F999FECF92BD81BDF89A992780B50895C4
:101C1000052E97FB1EF400940E941F0E57FD07D05F
:101C20000E94710E07FC03D04EF40C941F0E5095C9
:101C30004095309521953F4F4F4F5F4F08959095B8
:101C40008095709561957F4F8F4F9F4F08950E94AB
:101C5000930EA59F900DB49F900DA49F800D911D94
:101C600011240895B7FF0C94270E0E94270E821BA3
:101C7000930B08952F923F924F925F926F927F92B3
:101C80008F929F92AF92BF92CF92DF92EF92FF928C
:101C90000F931F93CF93DF93CDB7DEB7CA1BDB0B38
:101CA0000FB6F894DEBF0FBECDBF09942A883988DD
:101CB00048885F846E847D848C849B84AA84B984E4
:101CC000C884DF80EE80FD800C811B81AA81B981F0
:101CD000CE0FD11D0FB6F894DEBF0FBECDBFED0104
:101CE0000895A1E21A2EAA1BBB1BFD010DC0AA1F5D
:101CF000BB1FEE1FFF1FA217B307E407F50720F075
:101D0000A21BB30BE40BF50B661F771F881F991FEF
:101D10001A9469F760957095809590959B01AC0138
:101D2000BD01CF010895A29FB001B39FC001A39F41
:101D3000700D811D1124911DB29F700D811D112404
:101D4000911D0895EE0FFF1F0590F491E02D099469
:101D5000CF93DF938230910510F482E090E0E09120
:101D6000ED05F091EE0520E030E0C0E0D0E03097E6
:101D700011F14081518148175907C0F048175907A0
:101D800061F482819381209719F09B838A832BC011
:101D90009093EE058093ED0526C02115310519F0CD
:101DA0004217530718F49A01BE01DF01EF010280C8
:101DB000F381E02DDCCF2115310509F1281B390B0A
:101DC0002430310590F412968D919C9113976115F2
:101DD000710521F0FB019383828304C09093EE058B
:101DE0008093ED05FD01329644C0FD01E20FF31F23
:101DF00081939193225031092D933C933AC02091C5
:101E0000EB053091EC05232B41F420911201309128
:101E100013013093EC052093EB05209110013091D4
:101E200011012115310541F42DB73EB74091140140
:101E300050911501241B350BE091EB05F091EC0559
:101E4000E217F307A0F42E1B3F0B2817390778F091
:101E5000AC014E5F5F4F2417350748F04E0F5F1FF0
:101E60005093EC054093EB058193919302C0E0E021
:101E7000F0E0CF01DF91CF9108950F931F93CF939F
:101E8000DF93009709F48CC0FC0132971382128211
:101E90000091ED051091EE050115110581F42081E9
:101EA0003181820F931F2091EB053091EC052817AB
:101EB000390779F5F093EC05E093EB0571C0D80193
:101EC00040E050E0AE17BF0750F412962D913C91C0
:101ED0001397AD012115310509F1D901F3CF9D010A
:101EE000DA013383228360817181860F971F821705
:101EF000930769F4EC0128813981260F371F2E5F83
:101F00003F4F318320838A819B8193838283452B3A
:101F100029F4F093EE05E093ED0542C01396FC938F
:101F2000EE931297ED01499159919E01240F351FAF
:101F3000E217F30771F480819181840F951F029657
:101F400011969C938E938281938113969C938E938A
:101F50001297E0E0F0E0D80112968D919C911397D2
:101F6000009719F0F8018C01F6CF8D919C919801A2
:101F70002E5F3F4F820F931F2091EB053091EC05B0
:101F80002817390769F4309729F41092EE0510925A
:101F9000ED0502C0138212821093EC050093EB054D
:101FA000DF91CF911F910F910895A0E0B0E0EBED8C
:101FB000FFE00C943E0EEC01009721F4CB010E944F
:101FC000A80EB8C0FC01E60FF71F9C012250310992
:101FD000E217F30708F4ACC0D9010D911C911197D9
:101FE00006171707B0F00530110508F49FC0C801A7
:101FF00004978617970708F499C002501109061B29
:10200000170B019311936D937C93CF010E943D0FA9
:102010008DC05B01A01AB10A4C01800E911EA091E7
:10202000ED05B091EE0540E050E0E12CF12C109769
:1020300009F44AC0A815B905D1F56D907C901197A7
:10204000630182E0C80ED11CCA14DB0480F1A30135
:102050004A195B096A0182E0C80ED11C1296BC9035
:1020600012971396AC91B5E0CB16D10440F0B28232
:10207000A38351834083D9016D937C930AC00E5F83
:102080001F4FC301800F911FF90191838083EB2DB6
:10209000FA2FE114F10431F0D7011396FC93EE937B
:1020A000129744C0F093EE05E093ED053FC08D918B
:1020B0009C9111974817590708F4AC017D011296BD
:1020C0000D90BC91A02DB3CF8091EB059091EC05C4
:1020D00088159905E1F446175707C8F48091100157
:1020E00090911101009741F48DB79EB74091140172
:1020F00050911501841B950BE817F907C8F4F0936C
:10210000EC05E093EB05F901718360830FC0CB010F
:102110000E94A80E7C01009759F0A801BE010E9400
:10212000A410CE010E943D0FC70104C0CE0102C021
:1021300080E090E0CDB7DEB7EEE00C945A0E81E07F
:1021400090E0F8940C94B410FB01DC0102C0019003
:102150000D9241505040D8F70895FB01DC010190E9
:102160000D920020E1F7089513E0C2E2D3E004C02D
:10217000FE010E94A20E2196C332D107C9F7F8943E
:02218000FFCF8F
:10218200FFFFFFFF00E1000000000000010000006F
:102192000000EF05800000C1808100000000000007
:1021A200007608F70897088C08DD089B08B9080034
:1021B2000000005A04EC034B054A05C20CFCFF0068
:0C21C20000030D406D6D6F726F636100D3
:2070000055C000006EC000006CC000006AC0000068C0000066C0000064C0000062C0000043
:2070200060C000005EC00000F2C400005AC0000058C0000056C0000054C0000052C00000EE
:2070400050C0000078C000004CC000004AC0000048C0000046C0000044C0000042C00000BE
:2070600040C000003EC000003CC000003AC0000038C0000036C0000034C0000032C0000048
:2070800030C000002EC000002CC000002AC0000028C0000026C0000024C0000022C00000A8
:2070A00020C000001EC000001CC0000011241FBECFEFDAE0DEBFCDBF11E0A0E0B1E0E2E3BC
:2070C000FFE702C005900D92A83AB107D9F711E0A8EAB1E001C01D92AE3BB107E1F78FD30B
:2070E00026C78ECFF89410926F0010928100109285001092840081E085BF15BE47985D9AEB
:20710000289A0C94000008952091B2013091B3012F5F3F4F3093B3012093B201932F37FFA6
:2071200003C08EEF831B982F990F921710F447980895479A08951F920F920FB60F9211246E
:207140002F938F939F93EF93FF9310928500109284008091A8019091A901009741F00197D3
:207160009093A9018093A801892B09F45D9A8091AA019091AB01009741F001979093AB0126
:207180008093AA01892B09F4289AE0E0F0E0859194918F5F9F4F49F08091AC019091AD0151
:2071A00001969093AD018093AC01FF91EF919F918F912F910F900FBE0F901F90189584E0BC
:2071C0008093E9000DC08091E8008B778093E80003C08EB3882351F08091E80082FFF9CFBE
:2071E0008091E80085FFEFCF8091F1000895982F83E08093E9008091E80085FD0DC0809136
:20720000E8008E778093E80003C08EB3882369F08091E80080FFF9CF9093F1005D9884E6CB
:2072200090E09093A9018093A80108954F925F926F927F928F929F92AF92BF92CF92DF921E
:20724000EF92FF920F931F93CF93DF9384E08093E9008091E80082FF57C2289884E690E067
:207260009093AB018093AA01AADF182F853481F48CE49DE19093AD018093AC0107B600FC4B
:20728000FDCFF999FECF81E180935700E89503C0843519F494DF8DE00DC28C34E1F38035F9
:2072A000D1F3843721F484E4A2DF80E003C2813611F489E5FFC18134B1F481DF182F7FDFE3
:2072C00090E0880F991FAA2797FDA095BA2F312F330F20E0442737FD4095542F822B932B68
:2072E000A42BB52BB8C1803711F483E5E3C1833549F4C0E0D1E089917ADF21E0C730D20714
:20730000D1F7D9C1863521F481E371DF80E3D2C1833731F487E86BDF85E969DF8EE1CAC149
:207320008536B9F4E0E0F0E093E085E090935700E89507B600FCFDCF80935700E89507B65D
:2073400000FCFDCFE058FF4FA0E7E030FA0771F7A2CF823739F4E1E0F0E089E08093570024
:207360008491A8C1863439F4E0E0F0E089E08093570084919FC18E3439F4E3E0F0E089E0E5
:2073800080935700849196C1813539F4E2E0F0E089E08093570084918DC1823631F489E521
:2073A00026DF80E024DF80E885C1823419F0873609F0E5C01092AD011092AC0100DF082FE8
:2073C000FEDEF82EFCDE682E8554823008F071C1902F80E0CF2DD0E0C82BD92B10926F00B3
:2073E000173609F04BC081E180935700E895DD24CC24C3943FC0E090AE01F090AF010091CC
:20740000B0011091B101B6E46B16D9F4ED2DF0E0EE29FF29E4918E2FEADEDD2081F082E08D
:2074200090E0A0E0B0E0E80EF91E0A1F1B1FE092AE01F092AF010093B0011093B101DC2470
:2074400018C0D801C701B695A7959795879559D5CEDE82E090E0A0E0B0E0E80EF91E0A1FF2
:207460001B1FE092AE01F092AF010093B0011093B1012197209709F0BECF7DC08090AE01F5
:207480009090AF01A090B001B090B10196E4691609F05DC083E0F40180935700E89507B63E
:2074A00000FCFDCF54C0F6E46F1661F5772031F1E090AE01F090AF010091B0011091B1019E
:2074C0007EDED82ECC24852D90E08C299D29F7010C0140925700E895112482E090E0A0E08B
:2074E000B0E0E80EF91E0A1F1B1FE092AE01F092AF010093B0011093B10102C060DE582E1A
:20750000742423C0E090AE01F090AF010091B0011091B10116950795F794E79450DE682FFA
:20752000C701F7D48091AE019091AF01A091B001B091B1010296A11DB11D8093AE01909349
:20754000AF01A093B001B093B101219704C05524772444244394209709F0A5CF96E46916B6
:2075600041F485E0F40180935700E89507B600FCFDCF8DE03CDE82E080936F009CC0833492
:2075800071F40091AE011091AF0119DE90E021E0F8010C0120935700E89511247CCE8336C8
:2075A00019F5E090AE01F090AF010091B0011091B10105DEF701E16090E021E00C0120938C
:2075C0005700E895112482E090E0A0E0B0E0E80EF91E0A1F1B1FE092AE01F092AF0100936A
:2075E000B0011093B10157CE8D3661F4E091AE01F091AF0185E080935700E89507B600FCF2
:20760000FDCF49CE823551F4E091AE01F091AF0105911491812FEBDD802F4CC0843421F5FE
:20762000E090AE01F090AF010091B0011091B10116950795F794E794C2DD682FC70169D4DE
:207640008091AE019091AF01A091B001B091B1010296A11DB11D8093AE019093AF01A093D8
:20766000B001B093B10117CE843609F5E090AE01F090AF010091B0011091B101D801C70142
:20768000B695A795979587953CD4B1DD82E090E0A0E0B0E0E80EF91E0A1F1B1FE092AE010A
:2076A000F092AF010093B0011093B10104C08B3111F08FE39CDD83E08093E9009091E8002B
:2076C0008091E8008E778093E80095FF04C010C08EB38823C9F08091E80080FFF9CF809193
:2076E000E8008E778093E80003C08EB3882361F08091E80080FFF9CF84E08093E9008091F1
:20770000E8008B778093E800DF91CF911F910F91FF90EF90DF90CF90BF90AF909F908F90AC
:207720007F906F905F904F9008959091B601892F8F77813249F58091B7018032A1F081328A
:2077400019F5913A09F58091E800877F8093E8008DE091E067E070E00BD28091E8008B770B
:207760008093E8000895913279F48091E800877F8093E8008DE091E067E070E05DD2809192
:20778000E8008E778093E800089582E061EC42E0B5D083E061E842E1B1D084E060E842E1EF
:2077A000ADC084B7877F84BF88E10FB6F89480936000109260000FBE20E880E090E00FB63F
:2077C000F89420936100809361000FBE81E085BF92E095BF3F9A209A559AE1E6F0E02083A1
:2077E000108247985D9A289A109289008AEF8093880090936F0083E080938100F0C0409116
:20780000000850910108109201081092000894B714BE88E10FB6F8948093600010926000D5
:207820000FBE292F30E0F901E270F07091FD18C090FF05C0859194918F5F9F4F81F423FFFF
:207840000FC08091090190910A014817590741F0E0E0F0E0859194918F5F9F4F09F042DC64
:20786000A0DF78941092AD011092AC010CC0DEDC36D38091AC019091AD0181549F4110F00D
:207880001092140141DC80911401882381F78091E00081608093E00025DC80E090E0089598
:2078A000FA01923049F0933061F09130F9F485E191E022E130E01EC087E291E02EE330E04D
:2078C00019C0882329F485E691E024E030E012C0813029F489E691E022E230E00BC0823006
:2078E00029F48DE891E028E130E004C080E090E020E030E091838083C90108958093E9004E
:207900008091EB0081608093EB001092ED006093EC004093ED008091EE00881F8827881F62
:2079200008958091B60188238CF403C08EB38823B1F08091E80082FFF9CF8091E8008B772A
:207940008093E80008958EB3882349F08091E80080FFF9CF8091E8008E778093E800089594
:20796000EF92FF920F931F9345D04CD008ED10E0F80180818F77808380818068808380819B
:207980008F7D808319BC1EBA1092B40180EEE82EF12CF70180818B7F8083F8018081816052
:2079A000808380E060E042E0A9DFE1EEF0E080818E7F8083E2EEF0E0808181608083808144
:2079C00088608083F70180818E7F8083F8018081806180831F910F91FF90EF900895E7ED06
:2079E000F0E08081816080838AE482BF81E08093B501B6CFE8EDF0E080818E7F808310921C
:207A0000E20008951092DA001092E10008951F920F920FB60F9211242F933F934F935F93F6
:207A20006F937F938F939F93AF93BF93EF93FF938091DA0080FF1BC08091D80080FF17C0B2
:207A40008091DA008E7F8093DA008091D90080FF0BC080E189BD82E189BD09B400FEFDCF36
:207A600081E08EBB3BD203C019BC1EBA37D28091E10080FF17C08091E20080FF13C0809138
:207A8000E2008E7F8093E2008091E20080618093E2008091D80080628093D80019BC85E049
:207AA0008EBB1CD28091E10084FF2CC08091E20084FF28C080E189BD82E189BD09B400FEC5
:207AC000FDCF8091D8008F7D8093D8008091E1008F7E8093E1008091E2008F7E8093E20012
:207AE0008091E20081608093E2008091B401882331F48091E30087FD02C081E001C084E067
:207B00008EBBECD18091E10083FF21C08091E20083FF1DC08091E100877F8093E10082E06A
:207B20008EBB1092B4018091E1008E7F8093E1008091E2008E7F8093E2008091E2008061E9
:207B40008093E20080E060E042E0D8DEC7D1FF91EF91BF91AF919F918F917F916F915F9130
:207B60004F913F912F910F900FBE0F901F9018959C014091BC015091BD014617570718F49D
:207B8000F90190E044C06115710511F0AB01F8CF8091E8008E778093E80040E050E0F0CF0F
:207BA0008EB3882309F444C0853009F443C08091E80083FF02C081E008958091E80082FD70
:207BC00031C08091E80080FF22C08091F3009091F200782F60E0292F30E0262B372B07C07A
:207BE00081918093F100415050402F5F3F4F4115510519F02830310598F390E02830310566
:207C000009F491E08091E8008E778093E8004115510531F6992321F605C08EB3882341F075
:207C2000853041F08091E80082FFF7CF80E0089582E0089583E008959C016115710529F47C
:207C40008091E8008B778093E800F90126C08EB3882391F1853091F18091E80083FF02C06C
:207C600081E008958091E80082FFF1CF06C08091F10081936150704059F02091F300809191
:207C8000F200322F20E090E0822B932B892B79F78091E8008B778093E80061157105B9F601
:207CA00005C08EB3882341F0853041F08091E80080FFF7CF80E0089582E0089583E00895C2
:207CC0000F931F93DF93CF9300D0CDB7DEB7E6EBF1E08091F100819381E0EE3BF807C9F792
:207CE00024DD8091E80083FFE4C08091B6019091B701953009F46DC0963040F4913081F1A7
:207D0000913070F0933009F0D4C02AC0983009F4A3C0993009F4B2C0963009F0CAC07CC023
:207D2000803809F4C6C0823809F0C3C08091BA0187708093E9008091EB001092E9002091DB
:207D4000E800277F2093E80090E025E0969587952A95E1F781708093F1001092F10087C0D8
:207D6000882319F0823009F0A4C08F71823009F0A0C08091B801882331F52091BA01277097
:207D800009F497C02093E9008091EB0080FF1BC0933021F48091EB00806213C08091EB0018
:207DA00080618093EB0081E090E002C0880F991F2A95E2F78093EA001092EA008091EB00E5
:207DC00088608093EB001092E9008091E800877F51C0882309F06DC01091B8011F770FB79B
:207DE000F8948091E800877F8093E8009ADD8091E80080FFFCCF8091E3008078812B809398
:207E0000E30080688093E300112311F482E001C083E08EBB0FBF4DC08058823008F049C033
:207E20008091B8019091B9016091BA01AE014F5F5F4F36DDBC01009709F43BC08091E8008E
:207E4000877F8093E80089819A8192DE8091E8008B778093E8002DC0803859F58091E800AA
:207E6000877F8093E8008091B4018093F1008091E8008E778093E80054DD1BC08823C9F4CA
:207E80009091B8019230A8F48091E800877F8093E8009093B40145DD8091B401882331F420
:207EA0008091E30087FD02C081E001C084E08EBB6CDC8091E80083FF0AC08091EB0080624E
:207EC0008093EB008091E800877F8093E8000F900F90CF91DF911F910F91089508951F9360
:207EE0008EB3882361F01091E9001092E9008091E80083FF01C0E4DE17701093E9001F916F
:207F00000895F999FECF92BD81BDF89A992780B50895262FF999FECF1FBA92BD81BD20BDBD
:207F20000FB6F894FA9AF99A0FBE01960895F894FFCF4341544552494E4100777700080031
:207F40000000000000080112011001020000084123360001000201000109023E00020100FF
:207F600080320904000001020201000524001001042402040524060001070582030800FF0C
:207F800009040100020A000000070504021000010705830210000104030904220341007216
:207FA000006400750069006E006F0020004C0065006F006E006100720064006F0000001836
:1A7FC00003410072006400750069006E006F0020004C004C004300000000D7
:00000001FF
